{
  "contractName": "Karachiite",
  "abi": [
    {
      "inputs": [],
      "stateMutability": "nonpayable",
      "type": "constructor"
    },
    {
      "anonymous": false,
      "inputs": [
        {
          "indexed": true,
          "internalType": "address",
          "name": "owner",
          "type": "address"
        },
        {
          "indexed": true,
          "internalType": "address",
          "name": "approved",
          "type": "address"
        },
        {
          "indexed": true,
          "internalType": "uint256",
          "name": "tokenId",
          "type": "uint256"
        }
      ],
      "name": "Approval",
      "type": "event"
    },
    {
      "anonymous": false,
      "inputs": [
        {
          "indexed": true,
          "internalType": "address",
          "name": "owner",
          "type": "address"
        },
        {
          "indexed": true,
          "internalType": "address",
          "name": "operator",
          "type": "address"
        },
        {
          "indexed": false,
          "internalType": "bool",
          "name": "approved",
          "type": "bool"
        }
      ],
      "name": "ApprovalForAll",
      "type": "event"
    },
    {
      "anonymous": false,
      "inputs": [
        {
          "indexed": true,
          "internalType": "address",
          "name": "previousOwner",
          "type": "address"
        },
        {
          "indexed": true,
          "internalType": "address",
          "name": "newOwner",
          "type": "address"
        }
      ],
      "name": "OwnershipTransferred",
      "type": "event"
    },
    {
      "anonymous": false,
      "inputs": [
        {
          "indexed": false,
          "internalType": "address",
          "name": "account",
          "type": "address"
        }
      ],
      "name": "Paused",
      "type": "event"
    },
    {
      "anonymous": false,
      "inputs": [
        {
          "indexed": true,
          "internalType": "address",
          "name": "from",
          "type": "address"
        },
        {
          "indexed": true,
          "internalType": "address",
          "name": "to",
          "type": "address"
        },
        {
          "indexed": true,
          "internalType": "uint256",
          "name": "tokenId",
          "type": "uint256"
        }
      ],
      "name": "Transfer",
      "type": "event"
    },
    {
      "anonymous": false,
      "inputs": [
        {
          "indexed": false,
          "internalType": "address",
          "name": "account",
          "type": "address"
        }
      ],
      "name": "Unpaused",
      "type": "event"
    },
    {
      "stateMutability": "payable",
      "type": "fallback",
      "payable": true
    },
    {
      "inputs": [
        {
          "internalType": "address",
          "name": "to",
          "type": "address"
        },
        {
          "internalType": "uint256",
          "name": "tokenId",
          "type": "uint256"
        }
      ],
      "name": "approve",
      "outputs": [],
      "stateMutability": "nonpayable",
      "type": "function"
    },
    {
      "inputs": [
        {
          "internalType": "address",
          "name": "owner",
          "type": "address"
        }
      ],
      "name": "balanceOf",
      "outputs": [
        {
          "internalType": "uint256",
          "name": "",
          "type": "uint256"
        }
      ],
      "stateMutability": "view",
      "type": "function",
      "constant": true
    },
    {
      "inputs": [
        {
          "internalType": "uint256",
          "name": "tokenId",
          "type": "uint256"
        }
      ],
      "name": "burn",
      "outputs": [],
      "stateMutability": "nonpayable",
      "type": "function"
    },
    {
      "inputs": [
        {
          "internalType": "uint256",
          "name": "tokenId",
          "type": "uint256"
        }
      ],
      "name": "getApproved",
      "outputs": [
        {
          "internalType": "address",
          "name": "",
          "type": "address"
        }
      ],
      "stateMutability": "view",
      "type": "function",
      "constant": true
    },
    {
      "inputs": [
        {
          "internalType": "address",
          "name": "owner",
          "type": "address"
        },
        {
          "internalType": "address",
          "name": "operator",
          "type": "address"
        }
      ],
      "name": "isApprovedForAll",
      "outputs": [
        {
          "internalType": "bool",
          "name": "",
          "type": "bool"
        }
      ],
      "stateMutability": "view",
      "type": "function",
      "constant": true
    },
    {
      "inputs": [],
      "name": "name",
      "outputs": [
        {
          "internalType": "string",
          "name": "",
          "type": "string"
        }
      ],
      "stateMutability": "view",
      "type": "function",
      "constant": true
    },
    {
      "inputs": [],
      "name": "owner",
      "outputs": [
        {
          "internalType": "address",
          "name": "",
          "type": "address"
        }
      ],
      "stateMutability": "view",
      "type": "function",
      "constant": true
    },
    {
      "inputs": [
        {
          "internalType": "uint256",
          "name": "tokenId",
          "type": "uint256"
        }
      ],
      "name": "ownerOf",
      "outputs": [
        {
          "internalType": "address",
          "name": "",
          "type": "address"
        }
      ],
      "stateMutability": "view",
      "type": "function",
      "constant": true
    },
    {
      "inputs": [],
      "name": "paused",
      "outputs": [
        {
          "internalType": "bool",
          "name": "",
          "type": "bool"
        }
      ],
      "stateMutability": "view",
      "type": "function",
      "constant": true
    },
    {
      "inputs": [],
      "name": "renounceOwnership",
      "outputs": [],
      "stateMutability": "nonpayable",
      "type": "function"
    },
    {
      "inputs": [
        {
          "internalType": "address",
          "name": "from",
          "type": "address"
        },
        {
          "internalType": "address",
          "name": "to",
          "type": "address"
        },
        {
          "internalType": "uint256",
          "name": "tokenId",
          "type": "uint256"
        }
      ],
      "name": "safeTransferFrom",
      "outputs": [],
      "stateMutability": "nonpayable",
      "type": "function"
    },
    {
      "inputs": [
        {
          "internalType": "address",
          "name": "from",
          "type": "address"
        },
        {
          "internalType": "address",
          "name": "to",
          "type": "address"
        },
        {
          "internalType": "uint256",
          "name": "tokenId",
          "type": "uint256"
        },
        {
          "internalType": "bytes",
          "name": "_data",
          "type": "bytes"
        }
      ],
      "name": "safeTransferFrom",
      "outputs": [],
      "stateMutability": "nonpayable",
      "type": "function"
    },
    {
      "inputs": [
        {
          "internalType": "address",
          "name": "operator",
          "type": "address"
        },
        {
          "internalType": "bool",
          "name": "approved",
          "type": "bool"
        }
      ],
      "name": "setApprovalForAll",
      "outputs": [],
      "stateMutability": "nonpayable",
      "type": "function"
    },
    {
      "inputs": [],
      "name": "symbol",
      "outputs": [
        {
          "internalType": "string",
          "name": "",
          "type": "string"
        }
      ],
      "stateMutability": "view",
      "type": "function",
      "constant": true
    },
    {
      "inputs": [
        {
          "internalType": "uint256",
          "name": "index",
          "type": "uint256"
        }
      ],
      "name": "tokenByIndex",
      "outputs": [
        {
          "internalType": "uint256",
          "name": "",
          "type": "uint256"
        }
      ],
      "stateMutability": "view",
      "type": "function",
      "constant": true
    },
    {
      "inputs": [
        {
          "internalType": "address",
          "name": "owner",
          "type": "address"
        },
        {
          "internalType": "uint256",
          "name": "index",
          "type": "uint256"
        }
      ],
      "name": "tokenOfOwnerByIndex",
      "outputs": [
        {
          "internalType": "uint256",
          "name": "",
          "type": "uint256"
        }
      ],
      "stateMutability": "view",
      "type": "function",
      "constant": true
    },
    {
      "inputs": [],
      "name": "totalSupply",
      "outputs": [
        {
          "internalType": "uint256",
          "name": "",
          "type": "uint256"
        }
      ],
      "stateMutability": "view",
      "type": "function",
      "constant": true
    },
    {
      "inputs": [
        {
          "internalType": "address",
          "name": "from",
          "type": "address"
        },
        {
          "internalType": "address",
          "name": "to",
          "type": "address"
        },
        {
          "internalType": "uint256",
          "name": "tokenId",
          "type": "uint256"
        }
      ],
      "name": "transferFrom",
      "outputs": [],
      "stateMutability": "nonpayable",
      "type": "function"
    },
    {
      "inputs": [
        {
          "internalType": "address",
          "name": "newOwner",
          "type": "address"
        }
      ],
      "name": "transferOwnership",
      "outputs": [],
      "stateMutability": "nonpayable",
      "type": "function"
    },
    {
      "stateMutability": "payable",
      "type": "receive",
      "payable": true
    },
    {
      "inputs": [
        {
          "internalType": "uint256",
          "name": "NFTPrice_",
          "type": "uint256"
        }
      ],
      "name": "setNFTPrice",
      "outputs": [],
      "stateMutability": "nonpayable",
      "type": "function"
    },
    {
      "inputs": [],
      "name": "getNFTPrice",
      "outputs": [
        {
          "internalType": "uint256",
          "name": "",
          "type": "uint256"
        }
      ],
      "stateMutability": "view",
      "type": "function",
      "constant": true
    },
    {
      "inputs": [
        {
          "internalType": "uint256",
          "name": "maxCap_",
          "type": "uint256"
        }
      ],
      "name": "setMaxCap",
      "outputs": [],
      "stateMutability": "nonpayable",
      "type": "function"
    },
    {
      "inputs": [],
      "name": "_maxSupply",
      "outputs": [
        {
          "internalType": "uint256",
          "name": "",
          "type": "uint256"
        }
      ],
      "stateMutability": "view",
      "type": "function",
      "constant": true
    },
    {
      "inputs": [],
      "name": "pause",
      "outputs": [],
      "stateMutability": "nonpayable",
      "type": "function"
    },
    {
      "inputs": [],
      "name": "unpause",
      "outputs": [],
      "stateMutability": "nonpayable",
      "type": "function"
    },
    {
      "inputs": [
        {
          "internalType": "address",
          "name": "to",
          "type": "address"
        }
      ],
      "name": "buyNFT",
      "outputs": [],
      "stateMutability": "payable",
      "type": "function",
      "payable": true
    },
    {
      "inputs": [
        {
          "internalType": "address",
          "name": "to",
          "type": "address"
        },
        {
          "internalType": "uint256",
          "name": "_countNfts",
          "type": "uint256"
        }
      ],
      "name": "buyNFTs",
      "outputs": [],
      "stateMutability": "payable",
      "type": "function",
      "payable": true
    },
    {
      "inputs": [
        {
          "internalType": "address",
          "name": "to",
          "type": "address"
        },
        {
          "internalType": "string",
          "name": "uri",
          "type": "string"
        }
      ],
      "name": "safeMint",
      "outputs": [],
      "stateMutability": "nonpayable",
      "type": "function"
    },
    {
      "inputs": [
        {
          "internalType": "address",
          "name": "to",
          "type": "address"
        },
        {
          "internalType": "string",
          "name": "uri",
          "type": "string"
        },
        {
          "internalType": "uint256",
          "name": "_countNfts",
          "type": "uint256"
        }
      ],
      "name": "safeMints",
      "outputs": [],
      "stateMutability": "nonpayable",
      "type": "function"
    },
    {
      "inputs": [
        {
          "internalType": "uint256",
          "name": "tokenId",
          "type": "uint256"
        }
      ],
      "name": "tokenURI",
      "outputs": [
        {
          "internalType": "string",
          "name": "",
          "type": "string"
        }
      ],
      "stateMutability": "view",
      "type": "function",
      "constant": true
    },
    {
      "inputs": [
        {
          "internalType": "bytes4",
          "name": "interfaceId",
          "type": "bytes4"
        }
      ],
      "name": "supportsInterface",
      "outputs": [
        {
          "internalType": "bool",
          "name": "",
          "type": "bool"
        }
      ],
      "stateMutability": "view",
      "type": "function",
      "constant": true
    },
    {
      "inputs": [],
      "name": "lastTokenID",
      "outputs": [
        {
          "internalType": "uint256",
          "name": "",
          "type": "uint256"
        }
      ],
      "stateMutability": "view",
      "type": "function",
      "constant": true
    },
    {
      "inputs": [],
      "name": "contractBalance",
      "outputs": [
        {
          "internalType": "uint256",
          "name": "",
          "type": "uint256"
        }
      ],
      "stateMutability": "view",
      "type": "function",
      "constant": true
    },
    {
      "inputs": [],
      "name": "withdraw",
      "outputs": [
        {
          "internalType": "uint256",
          "name": "",
          "type": "uint256"
        }
      ],
      "stateMutability": "payable",
      "type": "function",
      "payable": true
    },
    {
      "inputs": [],
      "name": "killContract",
      "outputs": [
        {
          "internalType": "bool",
          "name": "",
          "type": "bool"
        }
      ],
      "stateMutability": "payable",
      "type": "function",
      "payable": true
    }
  ],
  "bytecode": "0x60806040526040518060400160405280600581526020017f2e6a736f6e000000000000000000000000000000000000000000000000000000815250600690805190602001906200005192919062000f7a565b5060056010553480156200006457600080fd5b506040518060400160405280600a81526020017f4b617261636869697465000000000000000000000000000000000000000000008152506040518060400160405280600381526020017f4b484900000000000000000000000000000000000000000000000000000000008152508160009080519060200190620000e992919062000f7a565b5080600190805190602001906200010292919062000f7a565b5050506000600c60006101000a81548160ff02191690831515021790555062000140620001346200016e60201b60201c565b6200017660201b60201c565b662386f26fc10000600e819055506019600f8190555062000168600a6200023c60201b60201c565b62001888565b600033905090565b6000600c60019054906101000a900473ffffffffffffffffffffffffffffffffffffffff16905081600c60016101000a81548173ffffffffffffffffffffffffffffffffffffffff021916908373ffffffffffffffffffffffffffffffffffffffff1602179055508173ffffffffffffffffffffffffffffffffffffffff168173ffffffffffffffffffffffffffffffffffffffff167f8be0079c531659141344cd1fd0a4f28419497f9722a3daafe3b4186f6b6457e060405160405180910390a35050565b6200024c6200016e60201b60201c565b73ffffffffffffffffffffffffffffffffffffffff16620002726200038960201b60201c565b73ffffffffffffffffffffffffffffffffffffffff1614620002cb576040517f08c379a0000000000000000000000000000000000000000000000000000000008152600401620002c2906200108b565b60405180910390fd5b600081118015620002fa575080620002e8620003b360201b60201c565b620002f49190620010e6565b600f5410155b6200033c576040517f08c379a0000000000000000000000000000000000000000000000000000000008152600401620003339062001193565b60405180910390fd5b60005b81811015620003855760006040518060200160405280600081525090506200036e3382620003c060201b60201c565b5080806200037c90620011b5565b9150506200033f565b5050565b6000600c60019054906101000a900473ffffffffffffffffffffffffffffffffffffffff16905090565b6000600980549050905090565b620003d7600d6200048460201b62001b451760201c565b6000600d73__Counters______________________________63d602012f90916040518263ffffffff1660e01b81526004016200041591906200120a565b602060405180830381865af415801562000433573d6000803e3d6000fd5b505050506040513d601f19601f820116820180604052508101906200045991906200125d565b90506200046d83826200049a60201b60201c565b6200047f8183620004c060201b60201c565b505050565b6001816000016000828254019250508190555050565b620004bc8282604051806020016040528060008152506200054160201b60201c565b5050565b620004d182620005af60201b60201c565b62000513576040517f08c379a00000000000000000000000000000000000000000000000000000000081526004016200050a9062001305565b60405180910390fd5b80600b600084815260200190815260200160002090805190602001906200053c92919062000f7a565b505050565b6200055383836200061b60201b60201c565b6200056860008484846200080160201b60201c565b620005aa576040517f08c379a0000000000000000000000000000000000000000000000000000000008152600401620005a1906200139d565b60405180910390fd5b505050565b60008073ffffffffffffffffffffffffffffffffffffffff166002600084815260200190815260200160002060009054906101000a900473ffffffffffffffffffffffffffffffffffffffff1673ffffffffffffffffffffffffffffffffffffffff1614159050919050565b600073ffffffffffffffffffffffffffffffffffffffff168273ffffffffffffffffffffffffffffffffffffffff1614156200068e576040517f08c379a000000000000000000000000000000000000000000000000000000000815260040162000685906200140f565b60405180910390fd5b6200069f81620005af60201b60201c565b15620006e2576040517f08c379a0000000000000000000000000000000000000000000000000000000008152600401620006d99062001481565b60405180910390fd5b620006f660008383620009ab60201b60201c565b6001600360008473ffffffffffffffffffffffffffffffffffffffff1673ffffffffffffffffffffffffffffffffffffffff1681526020019081526020016000206000828254620007489190620010e6565b92505081905550816002600083815260200190815260200160002060006101000a81548173ffffffffffffffffffffffffffffffffffffffff021916908373ffffffffffffffffffffffffffffffffffffffff160217905550808273ffffffffffffffffffffffffffffffffffffffff16600073ffffffffffffffffffffffffffffffffffffffff167fddf252ad1be2c89b69c2b068fc378daa952ba7f163c4a11628f55a4df523b3ef60405160405180910390a45050565b60006200082f8473ffffffffffffffffffffffffffffffffffffffff1662000a1b60201b62001b5b1760201c565b156200099e578373ffffffffffffffffffffffffffffffffffffffff1663150b7a02620008616200016e60201b60201c565b8786866040518563ffffffff1660e01b81526004016200088594939291906200159d565b6020604051808303816000875af1925050508015620008c457506040513d601f19601f82011682018060405250810190620008c191906200164e565b60015b6200094d573d8060008114620008f7576040519150601f19603f3d011682016040523d82523d6000602084013e620008fc565b606091505b5060008151141562000945576040517f08c379a00000000000000000000000000000000000000000000000000000000081526004016200093c906200139d565b60405180910390fd5b805181602001fd5b63150b7a0260e01b7bffffffffffffffffffffffffffffffffffffffffffffffffffffffff1916817bffffffffffffffffffffffffffffffffffffffffffffffffffffffff191614915050620009a3565b600190505b949350505050565b620009bb62000a2e60201b60201c565b15620009fe576040517f08c379a0000000000000000000000000000000000000000000000000000000008152600401620009f590620016d0565b60405180910390fd5b62000a1683838362000a4560201b62001b6e1760201c565b505050565b600080823b905060008111915050919050565b6000600c60009054906101000a900460ff16905090565b62000a5d83838362000b8c60201b62001c821760201c565b600073ffffffffffffffffffffffffffffffffffffffff168373ffffffffffffffffffffffffffffffffffffffff16141562000aaa5762000aa48162000b9160201b60201c565b62000af2565b8173ffffffffffffffffffffffffffffffffffffffff168373ffffffffffffffffffffffffffffffffffffffff161462000af15762000af0838262000bda60201b60201c565b5b5b600073ffffffffffffffffffffffffffffffffffffffff168273ffffffffffffffffffffffffffffffffffffffff16141562000b3f5762000b398162000d5760201b60201c565b62000b87565b8273ffffffffffffffffffffffffffffffffffffffff168273ffffffffffffffffffffffffffffffffffffffff161462000b865762000b85828262000e3360201b60201c565b5b5b505050565b505050565b600980549050600a600083815260200190815260200160002081905550600981908060018154018082558091505060019003906000526020600020016000909190919091505550565b6000600162000bf48462000ebf60201b620013be1760201c565b62000c009190620016f2565b905060006008600084815260200190815260200160002054905081811462000ce6576000600760008673ffffffffffffffffffffffffffffffffffffffff1673ffffffffffffffffffffffffffffffffffffffff168152602001908152602001600020600084815260200190815260200160002054905080600760008773ffffffffffffffffffffffffffffffffffffffff1673ffffffffffffffffffffffffffffffffffffffff168152602001908152602001600020600084815260200190815260200160002081905550816008600083815260200190815260200160002081905550505b6008600084815260200190815260200160002060009055600760008573ffffffffffffffffffffffffffffffffffffffff1673ffffffffffffffffffffffffffffffffffffffff16815260200190815260200160002060008381526020019081526020016000206000905550505050565b6000600160098054905062000d6d9190620016f2565b90506000600a600084815260200190815260200160002054905060006009838154811062000da05762000d9f6200172d565b5b90600052602060002001549050806009838154811062000dc55762000dc46200172d565b5b906000526020600020018190555081600a600083815260200190815260200160002081905550600a600085815260200190815260200160002060009055600980548062000e175762000e166200175c565b5b6001900381819060005260206000200160009055905550505050565b600062000e4b8362000ebf60201b620013be1760201c565b905081600760008573ffffffffffffffffffffffffffffffffffffffff1673ffffffffffffffffffffffffffffffffffffffff168152602001908152602001600020600083815260200190815260200160002081905550806008600084815260200190815260200160002081905550505050565b60008073ffffffffffffffffffffffffffffffffffffffff168273ffffffffffffffffffffffffffffffffffffffff16141562000f33576040517f08c379a000000000000000000000000000000000000000000000000000000000815260040162000f2a9062001801565b60405180910390fd5b600360008373ffffffffffffffffffffffffffffffffffffffff1673ffffffffffffffffffffffffffffffffffffffff168152602001908152602001600020549050919050565b82805462000f889062001852565b90600052602060002090601f01602090048101928262000fac576000855562000ff8565b82601f1062000fc757805160ff191683800117855562000ff8565b8280016001018555821562000ff8579182015b8281111562000ff757825182559160200191906001019062000fda565b5b5090506200100791906200100b565b5090565b5b80821115620010265760008160009055506001016200100c565b5090565b600082825260208201905092915050565b7f4f776e61626c653a2063616c6c6572206973206e6f7420746865206f776e6572600082015250565b6000620010736020836200102a565b915062001080826200103b565b602082019050919050565b60006020820190508181036000830152620010a68162001064565b9050919050565b6000819050919050565b7f4e487b7100000000000000000000000000000000000000000000000000000000600052601160045260246000fd5b6000620010f382620010ad565b91506200110083620010ad565b9250827fffffffffffffffffffffffffffffffffffffffffffffffffffffffffffffffff03821115620011385762001137620010b7565b5b828201905092915050565b7f4e46543a20436865636b204d617820537570706c790000000000000000000000600082015250565b60006200117b6015836200102a565b9150620011888262001143565b602082019050919050565b60006020820190508181036000830152620011ae816200116c565b9050919050565b6000620011c282620010ad565b91507fffffffffffffffffffffffffffffffffffffffffffffffffffffffffffffffff821415620011f857620011f7620010b7565b5b600182019050919050565b8082525050565b600060208201905062001221600083018462001203565b92915050565b600080fd5b6200123781620010ad565b81146200124357600080fd5b50565b60008151905062001257816200122c565b92915050565b60006020828403121562001276576200127562001227565b5b6000620012868482850162001246565b91505092915050565b7f45524337323155524953746f726167653a2055524920736574206f66206e6f6e60008201527f6578697374656e7420746f6b656e000000000000000000000000000000000000602082015250565b6000620012ed602e836200102a565b9150620012fa826200128f565b604082019050919050565b600060208201905081810360008301526200132081620012de565b9050919050565b7f4552433732313a207472616e7366657220746f206e6f6e20455243373231526560008201527f63656976657220696d706c656d656e7465720000000000000000000000000000602082015250565b6000620013856032836200102a565b9150620013928262001327565b604082019050919050565b60006020820190508181036000830152620013b88162001376565b9050919050565b7f4552433732313a206d696e7420746f20746865207a65726f2061646472657373600082015250565b6000620013f76020836200102a565b91506200140482620013bf565b602082019050919050565b600060208201905081810360008301526200142a81620013e8565b9050919050565b7f4552433732313a20746f6b656e20616c7265616479206d696e74656400000000600082015250565b600062001469601c836200102a565b9150620014768262001431565b602082019050919050565b600060208201905081810360008301526200149c816200145a565b9050919050565b600073ffffffffffffffffffffffffffffffffffffffff82169050919050565b6000620014d082620014a3565b9050919050565b620014e281620014c3565b82525050565b620014f381620010ad565b82525050565b600081519050919050565b600082825260208201905092915050565b60005b838110156200153557808201518184015260208101905062001518565b8381111562001545576000848401525b50505050565b6000601f19601f8301169050919050565b60006200156982620014f9565b62001575818562001504565b93506200158781856020860162001515565b62001592816200154b565b840191505092915050565b6000608082019050620015b46000830187620014d7565b620015c36020830186620014d7565b620015d26040830185620014e8565b8181036060830152620015e681846200155c565b905095945050505050565b60007fffffffff0000000000000000000000000000000000000000000000000000000082169050919050565b6200162881620015f1565b81146200163457600080fd5b50565b60008151905062001648816200161d565b92915050565b60006020828403121562001667576200166662001227565b5b6000620016778482850162001637565b91505092915050565b7f5061757361626c653a2070617573656400000000000000000000000000000000600082015250565b6000620016b86010836200102a565b9150620016c58262001680565b602082019050919050565b60006020820190508181036000830152620016eb81620016a9565b9050919050565b6000620016ff82620010ad565b91506200170c83620010ad565b925082821015620017225762001721620010b7565b5b828203905092915050565b7f4e487b7100000000000000000000000000000000000000000000000000000000600052603260045260246000fd5b7f4e487b7100000000000000000000000000000000000000000000000000000000600052603160045260246000fd5b7f4552433732313a2062616c616e636520717565727920666f7220746865207a6560008201527f726f206164647265737300000000000000000000000000000000000000000000602082015250565b6000620017e9602a836200102a565b9150620017f6826200178b565b604082019050919050565b600060208201905081810360008301526200181c81620017da565b9050919050565b7f4e487b7100000000000000000000000000000000000000000000000000000000600052602260045260246000fd5b600060028204905060018216806200186b57607f821691505b6020821081141562001882576200188162001823565b5b50919050565b61509280620018986000396000f3fe6080604052600436106102085760003560e01c80635c975abb1161011857806395d89b41116100a0578063c87b56dd1161006f578063c87b56dd14610701578063d204c45e1461073e578063e985e9c514610767578063f2fde38b146107a4578063fb107a4f146107cd5761020f565b806395d89b4114610668578063a22cb46514610693578063b88d4fde146106bc578063ba79b564146106e55761020f565b8063763265de116100e7578063763265de146105a957806381530b68146105d25780638456cb59146105fb5780638b7afe2e146106125780638da5cb5b1461063d5761020f565b80635c975abb146104ed5780636352211e1461051857806370a0823114610555578063715018a6146105925761020f565b806323b872dd1161019b5780633ccfd60b1161016a5780633ccfd60b146104295780633f4ba83a1461044757806342842e0e1461045e57806342966c68146104875780634f6ccce7146104b05761020f565b806323b872dd1461037c5780632f745c59146103a55780633521bd7e146103e25780633945a60b1461040d5761020f565b80631205b96b116101d75780631205b96b146102df57806318160ddd146103085780631c02708d1461033357806322f4596f146103515761020f565b806301ffc9a71461021157806306fdde031461024e578063081812fc14610279578063095ea7b3146102b65761020f565b3661020f57005b005b34801561021d57600080fd5b5061023860048036038101906102339190613596565b6107f8565b60405161024591906135de565b60405180910390f35b34801561025a57600080fd5b5061026361080a565b6040516102709190613692565b60405180910390f35b34801561028557600080fd5b506102a0600480360381019061029b91906136ea565b61089c565b6040516102ad9190613758565b60405180910390f35b3480156102c257600080fd5b506102dd60048036038101906102d8919061379f565b610921565b005b3480156102eb57600080fd5b5061030660048036038101906103019190613914565b610a39565b005b34801561031457600080fd5b5061031d610b91565b60405161032a9190613992565b60405180910390f35b61033b610b9e565b60405161034891906135de565b60405180910390f35b34801561035d57600080fd5b50610366610ce6565b6040516103739190613992565b60405180910390f35b34801561038857600080fd5b506103a3600480360381019061039e91906139ad565b610cf0565b005b3480156103b157600080fd5b506103cc60048036038101906103c7919061379f565b610d50565b6040516103d99190613992565b60405180910390f35b3480156103ee57600080fd5b506103f7610df5565b6040516104049190613992565b60405180910390f35b6104276004803603810190610422919061379f565b610e77565b005b610431610fc0565b60405161043e9190613992565b60405180910390f35b34801561045357600080fd5b5061045c611182565b005b34801561046a57600080fd5b50610485600480360381019061048091906139ad565b611208565b005b34801561049357600080fd5b506104ae60048036038101906104a991906136ea565b611228565b005b3480156104bc57600080fd5b506104d760048036038101906104d291906136ea565b611284565b6040516104e49190613992565b60405180910390f35b3480156104f957600080fd5b506105026112f5565b60405161050f91906135de565b60405180910390f35b34801561052457600080fd5b5061053f600480360381019061053a91906136ea565b61130c565b60405161054c9190613758565b60405180910390f35b34801561056157600080fd5b5061057c60048036038101906105779190613a00565b6113be565b6040516105899190613992565b60405180910390f35b34801561059e57600080fd5b506105a7611476565b005b3480156105b557600080fd5b506105d060048036038101906105cb91906136ea565b6114fe565b005b3480156105de57600080fd5b506105f960048036038101906105f491906136ea565b611584565b005b34801561060757600080fd5b5061061061161c565b005b34801561061e57600080fd5b506106276116a2565b6040516106349190613992565b60405180910390f35b34801561064957600080fd5b506106526116aa565b60405161065f9190613758565b60405180910390f35b34801561067457600080fd5b5061067d6116d4565b60405161068a9190613692565b60405180910390f35b34801561069f57600080fd5b506106ba60048036038101906106b59190613a59565b611766565b005b3480156106c857600080fd5b506106e360048036038101906106de9190613b3a565b61177c565b005b6106ff60048036038101906106fa9190613a00565b6117de565b005b34801561070d57600080fd5b50610728600480360381019061072391906136ea565b6118c8565b6040516107359190613692565b60405180910390f35b34801561074a57600080fd5b5061076560048036038101906107609190613bbd565b6118da565b005b34801561077357600080fd5b5061078e60048036038101906107899190613c19565b6119af565b60405161079b91906135de565b60405180910390f35b3480156107b057600080fd5b506107cb60048036038101906107c69190613a00565b611a43565b005b3480156107d957600080fd5b506107e2611b3b565b6040516107ef9190613992565b60405180910390f35b600061080382611c87565b9050919050565b60606000805461081990613c88565b80601f016020809104026020016040519081016040528092919081815260200182805461084590613c88565b80156108925780601f1061086757610100808354040283529160200191610892565b820191906000526020600020905b81548152906001019060200180831161087557829003601f168201915b5050505050905090565b60006108a782611d01565b6108e6576040517f08c379a00000000000000000000000000000000000000000000000000000000081526004016108dd90613d2c565b60405180910390fd5b6004600083815260200190815260200160002060009054906101000a900473ffffffffffffffffffffffffffffffffffffffff169050919050565b600061092c8261130c565b90508073ffffffffffffffffffffffffffffffffffffffff168373ffffffffffffffffffffffffffffffffffffffff16141561099d576040517f08c379a000000000000000000000000000000000000000000000000000000000815260040161099490613dbe565b60405180910390fd5b8073ffffffffffffffffffffffffffffffffffffffff166109bc611d6d565b73ffffffffffffffffffffffffffffffffffffffff1614806109eb57506109ea816109e5611d6d565b6119af565b5b610a2a576040517f08c379a0000000000000000000000000000000000000000000000000000000008152600401610a2190613e50565b60405180910390fd5b610a348383611d75565b505050565b610a41611d6d565b73ffffffffffffffffffffffffffffffffffffffff16610a5f6116aa565b73ffffffffffffffffffffffffffffffffffffffff1614610ab5576040517f08c379a0000000000000000000000000000000000000000000000000000000008152600401610aac90613ebc565b60405180910390fd5b600f54610ac0610b91565b10610b00576040517f08c379a0000000000000000000000000000000000000000000000000000000008152600401610af790613f28565b60405180910390fd5b600081118015610b24575080610b14610b91565b610b1e9190613f77565b600f5410155b610b63576040517f08c379a0000000000000000000000000000000000000000000000000000000008152600401610b5a90614019565b60405180910390fd5b60005b81811015610b8b57610b788484611e2e565b8080610b8390614039565b915050610b66565b50505050565b6000600980549050905090565b6000610ba8611d6d565b73ffffffffffffffffffffffffffffffffffffffff16610bc66116aa565b73ffffffffffffffffffffffffffffffffffffffff1614610c1c576040517f08c379a0000000000000000000000000000000000000000000000000000000008152600401610c1390613ebc565b60405180910390fd5b610c246112f5565b15610c64576040517f08c379a0000000000000000000000000000000000000000000000000000000008152600401610c5b906140ce565b60405180910390fd5b47610c6d6116aa565b73ffffffffffffffffffffffffffffffffffffffff163073ffffffffffffffffffffffffffffffffffffffff167fddf252ad1be2c89b69c2b068fc378daa952ba7f163c4a11628f55a4df523b3ef60405160405180910390a4610cce6116aa565b73ffffffffffffffffffffffffffffffffffffffff16ff5b6000600f54905090565b610d01610cfb611d6d565b82611ed0565b610d40576040517f08c379a0000000000000000000000000000000000000000000000000000000008152600401610d3790614160565b60405180910390fd5b610d4b838383611fae565b505050565b6000610d5b836113be565b8210610d9c576040517f08c379a0000000000000000000000000000000000000000000000000000000008152600401610d93906141f2565b60405180910390fd5b600760008473ffffffffffffffffffffffffffffffffffffffff1673ffffffffffffffffffffffffffffffffffffffff168152602001908152602001600020600083815260200190815260200160002054905092915050565b6000600d73__Counters______________________________63d602012f90916040518263ffffffff1660e01b8152600401610e319190614219565b602060405180830381865af4158015610e4e573d6000803e3d6000fd5b505050506040513d601f19601f82011682018060405250810190610e729190614249565b905090565b600f54610e82610b91565b10610ec2576040517f08c379a0000000000000000000000000000000000000000000000000000000008152600401610eb990613f28565b60405180910390fd5b600081600e54610ed29190614276565b90508034148015610f105750600073ffffffffffffffffffffffffffffffffffffffff163373ffffffffffffffffffffffffffffffffffffffff1614155b8015610f1e57506010548211155b8015610f3e575081610f2e610b91565b610f389190613f77565b600f5410155b610f7d576040517f08c379a0000000000000000000000000000000000000000000000000000000008152600401610f7490614342565b60405180910390fd5b60005b82811015610fba576000604051806020016040528060008152509050610fa68582611e2e565b508080610fb290614039565b915050610f80565b50505050565b6000610fca611d6d565b73ffffffffffffffffffffffffffffffffffffffff16610fe86116aa565b73ffffffffffffffffffffffffffffffffffffffff161461103e576040517f08c379a000000000000000000000000000000000000000000000000000000000815260040161103590613ebc565b60405180910390fd5b6110466112f5565b15611086576040517f08c379a000000000000000000000000000000000000000000000000000000000815260040161107d906140ce565b60405180910390fd5b6000479050600081116110ce576040517f08c379a00000000000000000000000000000000000000000000000000000000081526004016110c5906143ae565b60405180910390fd5b60003373ffffffffffffffffffffffffffffffffffffffff16826040516110f4906143ff565b60006040518083038185875af1925050503d8060008114611131576040519150601f19603f3d011682016040523d82523d6000602084013e611136565b606091505b505090508061117a576040517f08c379a000000000000000000000000000000000000000000000000000000000815260040161117190614460565b60405180910390fd5b819250505090565b61118a611d6d565b73ffffffffffffffffffffffffffffffffffffffff166111a86116aa565b73ffffffffffffffffffffffffffffffffffffffff16146111fe576040517f08c379a00000000000000000000000000000000000000000000000000000000081526004016111f590613ebc565b60405180910390fd5b61120661220a565b565b6112238383836040518060200160405280600081525061177c565b505050565b611239611233611d6d565b82611ed0565b611278576040517f08c379a000000000000000000000000000000000000000000000000000000000815260040161126f906144f2565b60405180910390fd5b611281816122ac565b50565b600061128e610b91565b82106112cf576040517f08c379a00000000000000000000000000000000000000000000000000000000081526004016112c690614584565b60405180910390fd5b600982815481106112e3576112e26145a4565b5b90600052602060002001549050919050565b6000600c60009054906101000a900460ff16905090565b6000806002600084815260200190815260200160002060009054906101000a900473ffffffffffffffffffffffffffffffffffffffff169050600073ffffffffffffffffffffffffffffffffffffffff168173ffffffffffffffffffffffffffffffffffffffff1614156113b5576040517f08c379a00000000000000000000000000000000000000000000000000000000081526004016113ac90614645565b60405180910390fd5b80915050919050565b60008073ffffffffffffffffffffffffffffffffffffffff168273ffffffffffffffffffffffffffffffffffffffff16141561142f576040517f08c379a0000000000000000000000000000000000000000000000000000000008152600401611426906146d7565b60405180910390fd5b600360008373ffffffffffffffffffffffffffffffffffffffff1673ffffffffffffffffffffffffffffffffffffffff168152602001908152602001600020549050919050565b61147e611d6d565b73ffffffffffffffffffffffffffffffffffffffff1661149c6116aa565b73ffffffffffffffffffffffffffffffffffffffff16146114f2576040517f08c379a00000000000000000000000000000000000000000000000000000000081526004016114e990613ebc565b60405180910390fd5b6114fc60006122b8565b565b611506611d6d565b73ffffffffffffffffffffffffffffffffffffffff166115246116aa565b73ffffffffffffffffffffffffffffffffffffffff161461157a576040517f08c379a000000000000000000000000000000000000000000000000000000000815260040161157190613ebc565b60405180910390fd5b8060108190555050565b61158c611d6d565b73ffffffffffffffffffffffffffffffffffffffff166115aa6116aa565b73ffffffffffffffffffffffffffffffffffffffff1614611600576040517f08c379a00000000000000000000000000000000000000000000000000000000081526004016115f790613ebc565b60405180910390fd5b662386f26fc10000816116139190614276565b600e8190555050565b611624611d6d565b73ffffffffffffffffffffffffffffffffffffffff166116426116aa565b73ffffffffffffffffffffffffffffffffffffffff1614611698576040517f08c379a000000000000000000000000000000000000000000000000000000000815260040161168f90613ebc565b60405180910390fd5b6116a061237e565b565b600047905090565b6000600c60019054906101000a900473ffffffffffffffffffffffffffffffffffffffff16905090565b6060600180546116e390613c88565b80601f016020809104026020016040519081016040528092919081815260200182805461170f90613c88565b801561175c5780601f106117315761010080835404028352916020019161175c565b820191906000526020600020905b81548152906001019060200180831161173f57829003601f168201915b5050505050905090565b611778611771611d6d565b8383612421565b5050565b61178d611787611d6d565b83611ed0565b6117cc576040517f08c379a00000000000000000000000000000000000000000000000000000000081526004016117c390614160565b60405180910390fd5b6117d88484848461258e565b50505050565b600f546117e9610b91565b10611829576040517f08c379a000000000000000000000000000000000000000000000000000000000815260040161182090613f28565b60405180910390fd5b600e54341480156118675750600073ffffffffffffffffffffffffffffffffffffffff163373ffffffffffffffffffffffffffffffffffffffff1614155b6118a6576040517f08c379a000000000000000000000000000000000000000000000000000000000815260040161189d90614743565b60405180910390fd5b60006040518060200160405280600081525090506118c48282611e2e565b5050565b60606118d3826125ea565b9050919050565b6118e2611d6d565b73ffffffffffffffffffffffffffffffffffffffff166119006116aa565b73ffffffffffffffffffffffffffffffffffffffff1614611956576040517f08c379a000000000000000000000000000000000000000000000000000000000815260040161194d90613ebc565b60405180910390fd5b600f54611961610b91565b106119a1576040517f08c379a000000000000000000000000000000000000000000000000000000000815260040161199890613f28565b60405180910390fd5b6119ab8282611e2e565b5050565b6000600560008473ffffffffffffffffffffffffffffffffffffffff1673ffffffffffffffffffffffffffffffffffffffff16815260200190815260200160002060008373ffffffffffffffffffffffffffffffffffffffff1673ffffffffffffffffffffffffffffffffffffffff16815260200190815260200160002060009054906101000a900460ff16905092915050565b611a4b611d6d565b73ffffffffffffffffffffffffffffffffffffffff16611a696116aa565b73ffffffffffffffffffffffffffffffffffffffff1614611abf576040517f08c379a0000000000000000000000000000000000000000000000000000000008152600401611ab690613ebc565b60405180910390fd5b600073ffffffffffffffffffffffffffffffffffffffff168173ffffffffffffffffffffffffffffffffffffffff161415611b2f576040517f08c379a0000000000000000000000000000000000000000000000000000000008152600401611b26906147d5565b60405180910390fd5b611b38816122b8565b50565b6000600e54905090565b6001816000016000828254019250508190555050565b600080823b905060008111915050919050565b611b79838383611c82565b600073ffffffffffffffffffffffffffffffffffffffff168373ffffffffffffffffffffffffffffffffffffffff161415611bbc57611bb78161273c565b611bfb565b8173ffffffffffffffffffffffffffffffffffffffff168373ffffffffffffffffffffffffffffffffffffffff1614611bfa57611bf98382612785565b5b5b600073ffffffffffffffffffffffffffffffffffffffff168273ffffffffffffffffffffffffffffffffffffffff161415611c3e57611c39816128f2565b611c7d565b8273ffffffffffffffffffffffffffffffffffffffff168273ffffffffffffffffffffffffffffffffffffffff1614611c7c57611c7b82826129c3565b5b5b505050565b505050565b60007f780e9d63000000000000000000000000000000000000000000000000000000007bffffffffffffffffffffffffffffffffffffffffffffffffffffffff1916827bffffffffffffffffffffffffffffffffffffffffffffffffffffffff19161480611cfa5750611cf982612a42565b5b9050919050565b60008073ffffffffffffffffffffffffffffffffffffffff166002600084815260200190815260200160002060009054906101000a900473ffffffffffffffffffffffffffffffffffffffff1673ffffffffffffffffffffffffffffffffffffffff1614159050919050565b600033905090565b816004600083815260200190815260200160002060006101000a81548173ffffffffffffffffffffffffffffffffffffffff021916908373ffffffffffffffffffffffffffffffffffffffff160217905550808273ffffffffffffffffffffffffffffffffffffffff16611de88361130c565b73ffffffffffffffffffffffffffffffffffffffff167f8c5be1e5ebec7d5bd14f71427d1e84f3dd0314c0f7b2291e5b200ac8c7c3b92560405160405180910390a45050565b611e38600d611b45565b6000600d73__Counters______________________________63d602012f90916040518263ffffffff1660e01b8152600401611e749190614219565b602060405180830381865af4158015611e91573d6000803e3d6000fd5b505050506040513d601f19601f82011682018060405250810190611eb59190614249565b9050611ec18382612b24565b611ecb8183612b42565b505050565b6000611edb82611d01565b611f1a576040517f08c379a0000000000000000000000000000000000000000000000000000000008152600401611f1190614867565b60405180910390fd5b6000611f258361130c565b90508073ffffffffffffffffffffffffffffffffffffffff168473ffffffffffffffffffffffffffffffffffffffff161480611f9457508373ffffffffffffffffffffffffffffffffffffffff16611f7c8461089c565b73ffffffffffffffffffffffffffffffffffffffff16145b80611fa55750611fa481856119af565b5b91505092915050565b8273ffffffffffffffffffffffffffffffffffffffff16611fce8261130c565b73ffffffffffffffffffffffffffffffffffffffff1614612024576040517f08c379a000000000000000000000000000000000000000000000000000000000815260040161201b906148f9565b60405180910390fd5b600073ffffffffffffffffffffffffffffffffffffffff168273ffffffffffffffffffffffffffffffffffffffff161415612094576040517f08c379a000000000000000000000000000000000000000000000000000000000815260040161208b9061498b565b60405180910390fd5b61209f838383612bb6565b6120aa600082611d75565b6001600360008573ffffffffffffffffffffffffffffffffffffffff1673ffffffffffffffffffffffffffffffffffffffff16815260200190815260200160002060008282546120fa91906149ab565b925050819055506001600360008473ffffffffffffffffffffffffffffffffffffffff1673ffffffffffffffffffffffffffffffffffffffff16815260200190815260200160002060008282546121519190613f77565b92505081905550816002600083815260200190815260200160002060006101000a81548173ffffffffffffffffffffffffffffffffffffffff021916908373ffffffffffffffffffffffffffffffffffffffff160217905550808273ffffffffffffffffffffffffffffffffffffffff168473ffffffffffffffffffffffffffffffffffffffff167fddf252ad1be2c89b69c2b068fc378daa952ba7f163c4a11628f55a4df523b3ef60405160405180910390a4505050565b6122126112f5565b612251576040517f08c379a000000000000000000000000000000000000000000000000000000000815260040161224890614a2b565b60405180910390fd5b6000600c60006101000a81548160ff0219169083151502179055507f5db9ee0a495bf2e6ff9c91a7834c1ba4fdd244a5e8aa4e537bd38aeae4b073aa612295611d6d565b6040516122a29190613758565b60405180910390a1565b6122b581612c0e565b50565b6000600c60019054906101000a900473ffffffffffffffffffffffffffffffffffffffff16905081600c60016101000a81548173ffffffffffffffffffffffffffffffffffffffff021916908373ffffffffffffffffffffffffffffffffffffffff1602179055508173ffffffffffffffffffffffffffffffffffffffff168173ffffffffffffffffffffffffffffffffffffffff167f8be0079c531659141344cd1fd0a4f28419497f9722a3daafe3b4186f6b6457e060405160405180910390a35050565b6123866112f5565b156123c6576040517f08c379a00000000000000000000000000000000000000000000000000000000081526004016123bd906140ce565b60405180910390fd5b6001600c60006101000a81548160ff0219169083151502179055507f62e78cea01bee320cd4e420270b5ea74000d11b0c9f74754ebdbfc544b05a25861240a611d6d565b6040516124179190613758565b60405180910390a1565b8173ffffffffffffffffffffffffffffffffffffffff168373ffffffffffffffffffffffffffffffffffffffff161415612490576040517f08c379a000000000000000000000000000000000000000000000000000000000815260040161248790614a97565b60405180910390fd5b80600560008573ffffffffffffffffffffffffffffffffffffffff1673ffffffffffffffffffffffffffffffffffffffff16815260200190815260200160002060008473ffffffffffffffffffffffffffffffffffffffff1673ffffffffffffffffffffffffffffffffffffffff16815260200190815260200160002060006101000a81548160ff0219169083151502179055508173ffffffffffffffffffffffffffffffffffffffff168373ffffffffffffffffffffffffffffffffffffffff167f17307eab39ab6107e8899845ad3d59bd9653f200f220920489ca2b5937696c318360405161258191906135de565b60405180910390a3505050565b612599848484611fae565b6125a584848484612c61565b6125e4576040517f08c379a00000000000000000000000000000000000000000000000000000000081526004016125db90614b29565b60405180910390fd5b50505050565b60606125f582611d01565b612634576040517f08c379a000000000000000000000000000000000000000000000000000000000815260040161262b90614bbb565b60405180910390fd5b6000600b6000848152602001908152602001600020805461265490613c88565b80601f016020809104026020016040519081016040528092919081815260200182805461268090613c88565b80156126cd5780601f106126a2576101008083540402835291602001916126cd565b820191906000526020600020905b8154815290600101906020018083116126b057829003601f168201915b5050505050905060006126de612de9565b90506000815114156126f4578192505050612737565b600082511115612729578082604051602001612711929190614c17565b60405160208183030381529060405292505050612737565b61273284612e09565b925050505b919050565b600980549050600a600083815260200190815260200160002081905550600981908060018154018082558091505060019003906000526020600020016000909190919091505550565b60006001612792846113be565b61279c91906149ab565b9050600060086000848152602001908152602001600020549050818114612881576000600760008673ffffffffffffffffffffffffffffffffffffffff1673ffffffffffffffffffffffffffffffffffffffff168152602001908152602001600020600084815260200190815260200160002054905080600760008773ffffffffffffffffffffffffffffffffffffffff1673ffffffffffffffffffffffffffffffffffffffff168152602001908152602001600020600084815260200190815260200160002081905550816008600083815260200190815260200160002081905550505b6008600084815260200190815260200160002060009055600760008573ffffffffffffffffffffffffffffffffffffffff1673ffffffffffffffffffffffffffffffffffffffff16815260200190815260200160002060008381526020019081526020016000206000905550505050565b6000600160098054905061290691906149ab565b90506000600a6000848152602001908152602001600020549050600060098381548110612936576129356145a4565b5b906000526020600020015490508060098381548110612958576129576145a4565b5b906000526020600020018190555081600a600083815260200190815260200160002081905550600a60008581526020019081526020016000206000905560098054806129a7576129a6614c3b565b5b6001900381819060005260206000200160009055905550505050565b60006129ce836113be565b905081600760008573ffffffffffffffffffffffffffffffffffffffff1673ffffffffffffffffffffffffffffffffffffffff168152602001908152602001600020600083815260200190815260200160002081905550806008600084815260200190815260200160002081905550505050565b60007f80ac58cd000000000000000000000000000000000000000000000000000000007bffffffffffffffffffffffffffffffffffffffffffffffffffffffff1916827bffffffffffffffffffffffffffffffffffffffffffffffffffffffff19161480612b0d57507f5b5e139f000000000000000000000000000000000000000000000000000000007bffffffffffffffffffffffffffffffffffffffffffffffffffffffff1916827bffffffffffffffffffffffffffffffffffffffffffffffffffffffff1916145b80612b1d5750612b1c82612f42565b5b9050919050565b612b3e828260405180602001604052806000815250612fac565b5050565b612b4b82611d01565b612b8a576040517f08c379a0000000000000000000000000000000000000000000000000000000008152600401612b8190614cdc565b60405180910390fd5b80600b60008481526020019081526020016000209080519060200190612bb1929190613447565b505050565b612bbe6112f5565b15612bfe576040517f08c379a0000000000000000000000000000000000000000000000000000000008152600401612bf5906140ce565b60405180910390fd5b612c09838383611b6e565b505050565b612c1781613007565b6000600b60008381526020019081526020016000208054612c3790613c88565b905014612c5e57600b60008281526020019081526020016000206000612c5d91906134cd565b5b50565b6000612c828473ffffffffffffffffffffffffffffffffffffffff16611b5b565b15612ddc578373ffffffffffffffffffffffffffffffffffffffff1663150b7a02612cab611d6d565b8786866040518563ffffffff1660e01b8152600401612ccd9493929190614d51565b6020604051808303816000875af1925050508015612d0957506040513d601f19601f82011682018060405250810190612d069190614db2565b60015b612d8c573d8060008114612d39576040519150601f19603f3d011682016040523d82523d6000602084013e612d3e565b606091505b50600081511415612d84576040517f08c379a0000000000000000000000000000000000000000000000000000000008152600401612d7b90614b29565b60405180910390fd5b805181602001fd5b63150b7a0260e01b7bffffffffffffffffffffffffffffffffffffffffffffffffffffffff1916817bffffffffffffffffffffffffffffffffffffffffffffffffffffffff191614915050612de1565b600190505b949350505050565b606060405180608001604052806051815260200161500c60519139905090565b6060612e1482611d01565b612e53576040517f08c379a0000000000000000000000000000000000000000000000000000000008152600401612e4a90614e51565b60405180910390fd5b6000612e5d612de9565b9050600060068054612e6e90613c88565b80601f0160208091040260200160405190810160405280929190818152602001828054612e9a90613c88565b8015612ee75780601f10612ebc57610100808354040283529160200191612ee7565b820191906000526020600020905b815481529060010190602001808311612eca57829003601f168201915b505050505090506000825111612f0c5760405180602001604052806000815250612f39565b81612f1685613118565b82604051602001612f2993929190614e71565b6040516020818303038152906040525b92505050919050565b60007f01ffc9a7000000000000000000000000000000000000000000000000000000007bffffffffffffffffffffffffffffffffffffffffffffffffffffffff1916827bffffffffffffffffffffffffffffffffffffffffffffffffffffffff1916149050919050565b612fb68383613279565b612fc36000848484612c61565b613002576040517f08c379a0000000000000000000000000000000000000000000000000000000008152600401612ff990614b29565b60405180910390fd5b505050565b60006130128261130c565b905061302081600084612bb6565b61302b600083611d75565b6001600360008373ffffffffffffffffffffffffffffffffffffffff1673ffffffffffffffffffffffffffffffffffffffff168152602001908152602001600020600082825461307b91906149ab565b925050819055506002600083815260200190815260200160002060006101000a81549073ffffffffffffffffffffffffffffffffffffffff021916905581600073ffffffffffffffffffffffffffffffffffffffff168273ffffffffffffffffffffffffffffffffffffffff167fddf252ad1be2c89b69c2b068fc378daa952ba7f163c4a11628f55a4df523b3ef60405160405180910390a45050565b60606000821415613160576040518060400160405280600181526020017f30000000000000000000000000000000000000000000000000000000000000008152509050613274565b600082905060005b6000821461319257808061317b90614039565b915050600a8261318b9190614ed1565b9150613168565b60008167ffffffffffffffff8111156131ae576131ad6137e9565b5b6040519080825280601f01601f1916602001820160405280156131e05781602001600182028036833780820191505090505b5090505b6000851461326d576001826131f991906149ab565b9150600a856132089190614f02565b60306132149190613f77565b60f81b81838151811061322a576132296145a4565b5b60200101907effffffffffffffffffffffffffffffffffffffffffffffffffffffffffffff1916908160001a905350600a856132669190614ed1565b94506131e4565b8093505050505b919050565b600073ffffffffffffffffffffffffffffffffffffffff168273ffffffffffffffffffffffffffffffffffffffff1614156132e9576040517f08c379a00000000000000000000000000000000000000000000000000000000081526004016132e090614f7f565b60405180910390fd5b6132f281611d01565b15613332576040517f08c379a000000000000000000000000000000000000000000000000000000000815260040161332990614feb565b60405180910390fd5b61333e60008383612bb6565b6001600360008473ffffffffffffffffffffffffffffffffffffffff1673ffffffffffffffffffffffffffffffffffffffff168152602001908152602001600020600082825461338e9190613f77565b92505081905550816002600083815260200190815260200160002060006101000a81548173ffffffffffffffffffffffffffffffffffffffff021916908373ffffffffffffffffffffffffffffffffffffffff160217905550808273ffffffffffffffffffffffffffffffffffffffff16600073ffffffffffffffffffffffffffffffffffffffff167fddf252ad1be2c89b69c2b068fc378daa952ba7f163c4a11628f55a4df523b3ef60405160405180910390a45050565b82805461345390613c88565b90600052602060002090601f01602090048101928261347557600085556134bc565b82601f1061348e57805160ff19168380011785556134bc565b828001600101855582156134bc579182015b828111156134bb5782518255916020019190600101906134a0565b5b5090506134c9919061350d565b5090565b5080546134d990613c88565b6000825580601f106134eb575061350a565b601f016020900490600052602060002090810190613509919061350d565b5b50565b5b8082111561352657600081600090555060010161350e565b5090565b6000604051905090565b600080fd5b600080fd5b60007fffffffff0000000000000000000000000000000000000000000000000000000082169050919050565b6135738161353e565b811461357e57600080fd5b50565b6000813590506135908161356a565b92915050565b6000602082840312156135ac576135ab613534565b5b60006135ba84828501613581565b91505092915050565b60008115159050919050565b6135d8816135c3565b82525050565b60006020820190506135f360008301846135cf565b92915050565b600081519050919050565b600082825260208201905092915050565b60005b83811015613633578082015181840152602081019050613618565b83811115613642576000848401525b50505050565b6000601f19601f8301169050919050565b6000613664826135f9565b61366e8185613604565b935061367e818560208601613615565b61368781613648565b840191505092915050565b600060208201905081810360008301526136ac8184613659565b905092915050565b6000819050919050565b6136c7816136b4565b81146136d257600080fd5b50565b6000813590506136e4816136be565b92915050565b600060208284031215613700576136ff613534565b5b600061370e848285016136d5565b91505092915050565b600073ffffffffffffffffffffffffffffffffffffffff82169050919050565b600061374282613717565b9050919050565b61375281613737565b82525050565b600060208201905061376d6000830184613749565b92915050565b61377c81613737565b811461378757600080fd5b50565b60008135905061379981613773565b92915050565b600080604083850312156137b6576137b5613534565b5b60006137c48582860161378a565b92505060206137d5858286016136d5565b9150509250929050565b600080fd5b600080fd5b7f4e487b7100000000000000000000000000000000000000000000000000000000600052604160045260246000fd5b61382182613648565b810181811067ffffffffffffffff821117156138405761383f6137e9565b5b80604052505050565b600061385361352a565b905061385f8282613818565b919050565b600067ffffffffffffffff82111561387f5761387e6137e9565b5b61388882613648565b9050602081019050919050565b82818337600083830152505050565b60006138b76138b284613864565b613849565b9050828152602081018484840111156138d3576138d26137e4565b5b6138de848285613895565b509392505050565b600082601f8301126138fb576138fa6137df565b5b813561390b8482602086016138a4565b91505092915050565b60008060006060848603121561392d5761392c613534565b5b600061393b8682870161378a565b935050602084013567ffffffffffffffff81111561395c5761395b613539565b5b613968868287016138e6565b9250506040613979868287016136d5565b9150509250925092565b61398c816136b4565b82525050565b60006020820190506139a76000830184613983565b92915050565b6000806000606084860312156139c6576139c5613534565b5b60006139d48682870161378a565b93505060206139e58682870161378a565b92505060406139f6868287016136d5565b9150509250925092565b600060208284031215613a1657613a15613534565b5b6000613a248482850161378a565b91505092915050565b613a36816135c3565b8114613a4157600080fd5b50565b600081359050613a5381613a2d565b92915050565b60008060408385031215613a7057613a6f613534565b5b6000613a7e8582860161378a565b9250506020613a8f85828601613a44565b9150509250929050565b600067ffffffffffffffff821115613ab457613ab36137e9565b5b613abd82613648565b9050602081019050919050565b6000613add613ad884613a99565b613849565b905082815260208101848484011115613af957613af86137e4565b5b613b04848285613895565b509392505050565b600082601f830112613b2157613b206137df565b5b8135613b31848260208601613aca565b91505092915050565b60008060008060808587031215613b5457613b53613534565b5b6000613b628782880161378a565b9450506020613b738782880161378a565b9350506040613b84878288016136d5565b925050606085013567ffffffffffffffff811115613ba557613ba4613539565b5b613bb187828801613b0c565b91505092959194509250565b60008060408385031215613bd457613bd3613534565b5b6000613be28582860161378a565b925050602083013567ffffffffffffffff811115613c0357613c02613539565b5b613c0f858286016138e6565b9150509250929050565b60008060408385031215613c3057613c2f613534565b5b6000613c3e8582860161378a565b9250506020613c4f8582860161378a565b9150509250929050565b7f4e487b7100000000000000000000000000000000000000000000000000000000600052602260045260246000fd5b60006002820490506001821680613ca057607f821691505b60208210811415613cb457613cb3613c59565b5b50919050565b7f4552433732313a20617070726f76656420717565727920666f72206e6f6e657860008201527f697374656e7420746f6b656e0000000000000000000000000000000000000000602082015250565b6000613d16602c83613604565b9150613d2182613cba565b604082019050919050565b60006020820190508181036000830152613d4581613d09565b9050919050565b7f4552433732313a20617070726f76616c20746f2063757272656e74206f776e6560008201527f7200000000000000000000000000000000000000000000000000000000000000602082015250565b6000613da8602183613604565b9150613db382613d4c565b604082019050919050565b60006020820190508181036000830152613dd781613d9b565b9050919050565b7f4552433732313a20617070726f76652063616c6c6572206973206e6f74206f7760008201527f6e6572206e6f7220617070726f76656420666f7220616c6c0000000000000000602082015250565b6000613e3a603883613604565b9150613e4582613dde565b604082019050919050565b60006020820190508181036000830152613e6981613e2d565b9050919050565b7f4f776e61626c653a2063616c6c6572206973206e6f7420746865206f776e6572600082015250565b6000613ea6602083613604565b9150613eb182613e70565b602082019050919050565b60006020820190508181036000830152613ed581613e99565b9050919050565b7f4e46543a204d617820537570706c792061636869766564000000000000000000600082015250565b6000613f12601783613604565b9150613f1d82613edc565b602082019050919050565b60006020820190508181036000830152613f4181613f05565b9050919050565b7f4e487b7100000000000000000000000000000000000000000000000000000000600052601160045260246000fd5b6000613f82826136b4565b9150613f8d836136b4565b9250827fffffffffffffffffffffffffffffffffffffffffffffffffffffffffffffffff03821115613fc257613fc1613f48565b5b828201905092915050565b7f4e46543a20436865636b204d617820537570706c790000000000000000000000600082015250565b6000614003601583613604565b915061400e82613fcd565b602082019050919050565b6000602082019050818103600083015261403281613ff6565b9050919050565b6000614044826136b4565b91507fffffffffffffffffffffffffffffffffffffffffffffffffffffffffffffffff82141561407757614076613f48565b5b600182019050919050565b7f5061757361626c653a2070617573656400000000000000000000000000000000600082015250565b60006140b8601083613604565b91506140c382614082565b602082019050919050565b600060208201905081810360008301526140e7816140ab565b9050919050565b7f4552433732313a207472616e736665722063616c6c6572206973206e6f74206f60008201527f776e6572206e6f7220617070726f766564000000000000000000000000000000602082015250565b600061414a603183613604565b9150614155826140ee565b604082019050919050565b600060208201905081810360008301526141798161413d565b9050919050565b7f455243373231456e756d657261626c653a206f776e657220696e646578206f7560008201527f74206f6620626f756e6473000000000000000000000000000000000000000000602082015250565b60006141dc602b83613604565b91506141e782614180565b604082019050919050565b6000602082019050818103600083015261420b816141cf565b9050919050565b8082525050565b600060208201905061422e6000830184614212565b92915050565b600081519050614243816136be565b92915050565b60006020828403121561425f5761425e613534565b5b600061426d84828501614234565b91505092915050565b6000614281826136b4565b915061428c836136b4565b9250817fffffffffffffffffffffffffffffffffffffffffffffffffffffffffffffffff04831182151516156142c5576142c4613f48565b5b828202905092915050565b7f4e46543a204e465450726963652056532056616c756520616e64204d6178205360008201527f7570706c79000000000000000000000000000000000000000000000000000000602082015250565b600061432c602583613604565b9150614337826142d0565b604082019050919050565b6000602082019050818103600083015261435b8161431f565b9050919050565b7f4e46543a204e6f206574686572206c65667420746f2077697468647261770000600082015250565b6000614398601e83613604565b91506143a382614362565b602082019050919050565b600060208201905081810360008301526143c78161438b565b9050919050565b600081905092915050565b50565b60006143e96000836143ce565b91506143f4826143d9565b600082019050919050565b600061440a826143dc565b9150819050919050565b7f4e46543a205472616e73666572206661696c65642e0000000000000000000000600082015250565b600061444a601583613604565b915061445582614414565b602082019050919050565b600060208201905081810360008301526144798161443d565b9050919050565b7f4552433732314275726e61626c653a2063616c6c6572206973206e6f74206f7760008201527f6e6572206e6f7220617070726f76656400000000000000000000000000000000602082015250565b60006144dc603083613604565b91506144e782614480565b604082019050919050565b6000602082019050818103600083015261450b816144cf565b9050919050565b7f455243373231456e756d657261626c653a20676c6f62616c20696e646578206f60008201527f7574206f6620626f756e64730000000000000000000000000000000000000000602082015250565b600061456e602c83613604565b915061457982614512565b604082019050919050565b6000602082019050818103600083015261459d81614561565b9050919050565b7f4e487b7100000000000000000000000000000000000000000000000000000000600052603260045260246000fd5b7f4552433732313a206f776e657220717565727920666f72206e6f6e657869737460008201527f656e7420746f6b656e0000000000000000000000000000000000000000000000602082015250565b600061462f602983613604565b915061463a826145d3565b604082019050919050565b6000602082019050818103600083015261465e81614622565b9050919050565b7f4552433732313a2062616c616e636520717565727920666f7220746865207a6560008201527f726f206164647265737300000000000000000000000000000000000000000000602082015250565b60006146c1602a83613604565b91506146cc82614665565b604082019050919050565b600060208201905081810360008301526146f0816146b4565b9050919050565b7f4e46543a204e465450726963652056532056616c756500000000000000000000600082015250565b600061472d601683613604565b9150614738826146f7565b602082019050919050565b6000602082019050818103600083015261475c81614720565b9050919050565b7f4f776e61626c653a206e6577206f776e657220697320746865207a65726f206160008201527f6464726573730000000000000000000000000000000000000000000000000000602082015250565b60006147bf602683613604565b91506147ca82614763565b604082019050919050565b600060208201905081810360008301526147ee816147b2565b9050919050565b7f4552433732313a206f70657261746f7220717565727920666f72206e6f6e657860008201527f697374656e7420746f6b656e0000000000000000000000000000000000000000602082015250565b6000614851602c83613604565b915061485c826147f5565b604082019050919050565b6000602082019050818103600083015261488081614844565b9050919050565b7f4552433732313a207472616e73666572206f6620746f6b656e2074686174206960008201527f73206e6f74206f776e0000000000000000000000000000000000000000000000602082015250565b60006148e3602983613604565b91506148ee82614887565b604082019050919050565b60006020820190508181036000830152614912816148d6565b9050919050565b7f4552433732313a207472616e7366657220746f20746865207a65726f2061646460008201527f7265737300000000000000000000000000000000000000000000000000000000602082015250565b6000614975602483613604565b915061498082614919565b604082019050919050565b600060208201905081810360008301526149a481614968565b9050919050565b60006149b6826136b4565b91506149c1836136b4565b9250828210156149d4576149d3613f48565b5b828203905092915050565b7f5061757361626c653a206e6f7420706175736564000000000000000000000000600082015250565b6000614a15601483613604565b9150614a20826149df565b602082019050919050565b60006020820190508181036000830152614a4481614a08565b9050919050565b7f4552433732313a20617070726f766520746f2063616c6c657200000000000000600082015250565b6000614a81601983613604565b9150614a8c82614a4b565b602082019050919050565b60006020820190508181036000830152614ab081614a74565b9050919050565b7f4552433732313a207472616e7366657220746f206e6f6e20455243373231526560008201527f63656976657220696d706c656d656e7465720000000000000000000000000000602082015250565b6000614b13603283613604565b9150614b1e82614ab7565b604082019050919050565b60006020820190508181036000830152614b4281614b06565b9050919050565b7f45524337323155524953746f726167653a2055524920717565727920666f722060008201527f6e6f6e6578697374656e7420746f6b656e000000000000000000000000000000602082015250565b6000614ba5603183613604565b9150614bb082614b49565b604082019050919050565b60006020820190508181036000830152614bd481614b98565b9050919050565b600081905092915050565b6000614bf1826135f9565b614bfb8185614bdb565b9350614c0b818560208601613615565b80840191505092915050565b6000614c238285614be6565b9150614c2f8284614be6565b91508190509392505050565b7f4e487b7100000000000000000000000000000000000000000000000000000000600052603160045260246000fd5b7f45524337323155524953746f726167653a2055524920736574206f66206e6f6e60008201527f6578697374656e7420746f6b656e000000000000000000000000000000000000602082015250565b6000614cc6602e83613604565b9150614cd182614c6a565b604082019050919050565b60006020820190508181036000830152614cf581614cb9565b9050919050565b600081519050919050565b600082825260208201905092915050565b6000614d2382614cfc565b614d2d8185614d07565b9350614d3d818560208601613615565b614d4681613648565b840191505092915050565b6000608082019050614d666000830187613749565b614d736020830186613749565b614d806040830185613983565b8181036060830152614d928184614d18565b905095945050505050565b600081519050614dac8161356a565b92915050565b600060208284031215614dc857614dc7613534565b5b6000614dd684828501614d9d565b91505092915050565b7f4552433732314d657461646174613a2055524920717565727920666f72206e6f60008201527f6e6578697374656e7420746f6b656e0000000000000000000000000000000000602082015250565b6000614e3b602f83613604565b9150614e4682614ddf565b604082019050919050565b60006020820190508181036000830152614e6a81614e2e565b9050919050565b6000614e7d8286614be6565b9150614e898285614be6565b9150614e958284614be6565b9150819050949350505050565b7f4e487b7100000000000000000000000000000000000000000000000000000000600052601260045260246000fd5b6000614edc826136b4565b9150614ee7836136b4565b925082614ef757614ef6614ea2565b5b828204905092915050565b6000614f0d826136b4565b9150614f18836136b4565b925082614f2857614f27614ea2565b5b828206905092915050565b7f4552433732313a206d696e7420746f20746865207a65726f2061646472657373600082015250565b6000614f69602083613604565b9150614f7482614f33565b602082019050919050565b60006020820190508181036000830152614f9881614f5c565b9050919050565b7f4552433732313a20746f6b656e20616c7265616479206d696e74656400000000600082015250565b6000614fd5601c83613604565b9150614fe082614f9f565b602082019050919050565b6000602082019050818103600083015261500481614fc8565b905091905056fe68747470733a2f2f676174657761792e70696e6174612e636c6f75642f697066732f516d5034333969453457397756535432643263326845353846715574526748634c614a52616969505036363971342fa2646970667358221220854d1c8004e80e86c73b8f13e6720ef96405eccc8edc0936a3629912151a8f7764736f6c634300080a0033",
  "immutableReferences": {},
  "source": "// SPDX-License-Identifier: MIT\r\n\r\n// File: @openzeppelin/contracts@4.4.2/utils/Counters.sol\r\n\r\n\r\n// OpenZeppelin Contracts v4.4.1 (utils/Counters.sol)\r\n\r\npragma solidity ^0.8.0;\r\n\r\n/**\r\n * @title Counters\r\n * @author Matt Condon (@shrugs)\r\n * @dev Provides counters that can only be incremented, decremented or reset. This can be used e.g. to track the number\r\n * of elements in a mapping, issuing ERC721 ids, or counting request ids.\r\n *\r\n * Include with `using Counters for Counters.Counter;`\r\n */\r\nlibrary Counters {\r\n    struct Counter {\r\n        // This variable should never be directly accessed by users of the library: interactions must be restricted to\r\n        // the library's function. As of Solidity v0.5.2, this cannot be enforced, though there is a proposal to add\r\n        // this feature: see https://github.com/ethereum/solidity/issues/4637\r\n        uint256 _value; // default: 0\r\n    }\r\n\r\n    function current(Counter storage counter) public view returns (uint256) {\r\n        return counter._value;\r\n    }\r\n\r\n    function increment(Counter storage counter) internal {\r\n        unchecked {\r\n            counter._value += 1;\r\n        }\r\n    }\r\n\r\n    function decrement(Counter storage counter) internal {\r\n        uint256 value = counter._value;\r\n        require(value > 0, \"Counter: decrement overflow\");\r\n        unchecked {\r\n            counter._value = value - 1;\r\n        }\r\n    }\r\n\r\n    function reset(Counter storage counter) internal {\r\n        counter._value = 0;\r\n    }\r\n}\r\n\r\n// File: @openzeppelin/contracts@4.4.2/utils/Strings.sol\r\n\r\n\r\n// OpenZeppelin Contracts v4.4.1 (utils/Strings.sol)\r\n\r\npragma solidity ^0.8.0;\r\n\r\n/**\r\n * @dev String operations.\r\n */\r\nlibrary Strings {\r\n    bytes16 private constant _HEX_SYMBOLS = \"0123456789abcdef\";\r\n\r\n    /**\r\n     * @dev Converts a `uint256` to its ASCII `string` decimal representation.\r\n     */\r\n    function toString(uint256 value) internal pure returns (string memory) {\r\n        // Inspired by OraclizeAPI's implementation - MIT licence\r\n        // https://github.com/oraclize/ethereum-api/blob/b42146b063c7d6ee1358846c198246239e9360e8/oraclizeAPI_0.4.25.sol\r\n\r\n        if (value == 0) {\r\n            return \"0\";\r\n        }\r\n        uint256 temp = value;\r\n        uint256 digits;\r\n        while (temp != 0) {\r\n            digits++;\r\n            temp /= 10;\r\n        }\r\n        bytes memory buffer = new bytes(digits);\r\n        while (value != 0) {\r\n            digits -= 1;\r\n            buffer[digits] = bytes1(uint8(48 + uint256(value % 10)));\r\n            value /= 10;\r\n        }\r\n        return string(buffer);\r\n    }\r\n\r\n    /**\r\n     * @dev Converts a `uint256` to its ASCII `string` hexadecimal representation.\r\n     */\r\n    function toHexString(uint256 value) internal pure returns (string memory) {\r\n        if (value == 0) {\r\n            return \"0x00\";\r\n        }\r\n        uint256 temp = value;\r\n        uint256 length = 0;\r\n        while (temp != 0) {\r\n            length++;\r\n            temp >>= 8;\r\n        }\r\n        return toHexString(value, length);\r\n    }\r\n\r\n    /**\r\n     * @dev Converts a `uint256` to its ASCII `string` hexadecimal representation with fixed length.\r\n     */\r\n    function toHexString(uint256 value, uint256 length) internal pure returns (string memory) {\r\n        bytes memory buffer = new bytes(2 * length + 2);\r\n        buffer[0] = \"0\";\r\n        buffer[1] = \"x\";\r\n        for (uint256 i = 2 * length + 1; i > 1; --i) {\r\n            buffer[i] = _HEX_SYMBOLS[value & 0xf];\r\n            value >>= 4;\r\n        }\r\n        require(value == 0, \"Strings: hex length insufficient\");\r\n        return string(buffer);\r\n    }\r\n}\r\n\r\n// File: @openzeppelin/contracts@4.4.2/utils/Context.sol\r\n\r\n\r\n// OpenZeppelin Contracts v4.4.1 (utils/Context.sol)\r\n\r\npragma solidity ^0.8.0;\r\n\r\n/**\r\n * @dev Provides information about the current execution context, including the\r\n * sender of the transaction and its data. While these are generally available\r\n * via msg.sender and msg.data, they should not be accessed in such a direct\r\n * manner, since when dealing with meta-transactions the account sending and\r\n * paying for execution may not be the actual sender (as far as an application\r\n * is concerned).\r\n *\r\n * This contract is only required for intermediate, library-like contracts.\r\n */\r\nabstract contract Context {\r\n    function _msgSender() internal view virtual returns (address) {\r\n        return msg.sender;\r\n    }\r\n\r\n    function _msgData() internal view virtual returns (bytes calldata) {\r\n        return msg.data;\r\n    }\r\n}\r\n\r\n// File: @openzeppelin/contracts@4.4.2/access/Ownable.sol\r\n\r\n\r\n// OpenZeppelin Contracts v4.4.1 (access/Ownable.sol)\r\n\r\npragma solidity ^0.8.0;\r\n\r\n\r\n/**\r\n * @dev Contract module which provides a basic access control mechanism, where\r\n * there is an account (an owner) that can be granted exclusive access to\r\n * specific functions.\r\n *\r\n * By default, the owner account will be the one that deploys the contract. This\r\n * can later be changed with {transferOwnership}.\r\n *\r\n * This module is used through inheritance. It will make available the modifier\r\n * `onlyOwner`, which can be applied to your functions to restrict their use to\r\n * the owner.\r\n */\r\nabstract contract Ownable is Context {\r\n    address private _owner;\r\n\r\n    event OwnershipTransferred(address indexed previousOwner, address indexed newOwner);\r\n\r\n    /**\r\n     * @dev Initializes the contract setting the deployer as the initial owner.\r\n     */\r\n    constructor() {\r\n        _transferOwnership(_msgSender());\r\n    }\r\n\r\n    /**\r\n     * @dev Returns the address of the current owner.\r\n     */\r\n    function owner() public view virtual returns (address) {\r\n        return _owner;\r\n    }\r\n\r\n    /**\r\n     * @dev Throws if called by any account other than the owner.\r\n     */\r\n    modifier onlyOwner() {\r\n        require(owner() == _msgSender(), \"Ownable: caller is not the owner\");\r\n        _;\r\n    }\r\n\r\n    /**\r\n     * @dev Leaves the contract without owner. It will not be possible to call\r\n     * `onlyOwner` functions anymore. Can only be called by the current owner.\r\n     *\r\n     * NOTE: Renouncing ownership will leave the contract without an owner,\r\n     * thereby removing any functionality that is only available to the owner.\r\n     */\r\n    function renounceOwnership() public virtual onlyOwner {\r\n        _transferOwnership(address(0));\r\n    }\r\n\r\n    /**\r\n     * @dev Transfers ownership of the contract to a new account (`newOwner`).\r\n     * Can only be called by the current owner.\r\n     */\r\n    function transferOwnership(address newOwner) public virtual onlyOwner {\r\n        require(newOwner != address(0), \"Ownable: new owner is the zero address\");\r\n        _transferOwnership(newOwner);\r\n    }\r\n\r\n    /**\r\n     * @dev Transfers ownership of the contract to a new account (`newOwner`).\r\n     * Internal function without access restriction.\r\n     */\r\n    function _transferOwnership(address newOwner) internal virtual {\r\n        address oldOwner = _owner;\r\n        _owner = newOwner;\r\n        emit OwnershipTransferred(oldOwner, newOwner);\r\n    }\r\n}\r\n\r\n// File: @openzeppelin/contracts@4.4.2/security/Pausable.sol\r\n\r\n\r\n// OpenZeppelin Contracts v4.4.1 (security/Pausable.sol)\r\n\r\npragma solidity ^0.8.0;\r\n\r\n\r\n/**\r\n * @dev Contract module which allows children to implement an emergency stop\r\n * mechanism that can be triggered by an authorized account.\r\n *\r\n * This module is used through inheritance. It will make available the\r\n * modifiers `whenNotPaused` and `whenPaused`, which can be applied to\r\n * the functions of your contract. Note that they will not be pausable by\r\n * simply including this module, only once the modifiers are put in place.\r\n */\r\nabstract contract Pausable is Context {\r\n    /**\r\n     * @dev Emitted when the pause is triggered by `account`.\r\n     */\r\n    event Paused(address account);\r\n\r\n    /**\r\n     * @dev Emitted when the pause is lifted by `account`.\r\n     */\r\n    event Unpaused(address account);\r\n\r\n    bool private _paused;\r\n\r\n    /**\r\n     * @dev Initializes the contract in unpaused state.\r\n     */\r\n    constructor() {\r\n        _paused = false;\r\n    }\r\n\r\n    /**\r\n     * @dev Returns true if the contract is paused, and false otherwise.\r\n     */\r\n    function paused() public view virtual returns (bool) {\r\n        return _paused;\r\n    }\r\n\r\n    /**\r\n     * @dev Modifier to make a function callable only when the contract is not paused.\r\n     *\r\n     * Requirements:\r\n     *\r\n     * - The contract must not be paused.\r\n     */\r\n    modifier whenNotPaused() {\r\n        require(!paused(), \"Pausable: paused\");\r\n        _;\r\n    }\r\n\r\n    /**\r\n     * @dev Modifier to make a function callable only when the contract is paused.\r\n     *\r\n     * Requirements:\r\n     *\r\n     * - The contract must be paused.\r\n     */\r\n    modifier whenPaused() {\r\n        require(paused(), \"Pausable: not paused\");\r\n        _;\r\n    }\r\n\r\n    /**\r\n     * @dev Triggers stopped state.\r\n     *\r\n     * Requirements:\r\n     *\r\n     * - The contract must not be paused.\r\n     */\r\n    function _pause() internal virtual whenNotPaused {\r\n        _paused = true;\r\n        emit Paused(_msgSender());\r\n    }\r\n\r\n    /**\r\n     * @dev Returns to normal state.\r\n     *\r\n     * Requirements:\r\n     *\r\n     * - The contract must be paused.\r\n     */\r\n    function _unpause() internal virtual whenPaused {\r\n        _paused = false;\r\n        emit Unpaused(_msgSender());\r\n    }\r\n}\r\n\r\n// File: @openzeppelin/contracts@4.4.2/utils/Address.sol\r\n\r\n\r\n// OpenZeppelin Contracts v4.4.1 (utils/Address.sol)\r\n\r\npragma solidity ^0.8.0;\r\n\r\n/**\r\n * @dev Collection of functions related to the address type\r\n */\r\nlibrary Address {\r\n    /**\r\n     * @dev Returns true if `account` is a contract.\r\n     *\r\n     * [IMPORTANT]\r\n     * ====\r\n     * It is unsafe to assume that an address for which this function returns\r\n     * false is an externally-owned account (EOA) and not a contract.\r\n     *\r\n     * Among others, `isContract` will return false for the following\r\n     * types of addresses:\r\n     *\r\n     *  - an externally-owned account\r\n     *  - a contract in construction\r\n     *  - an address where a contract will be created\r\n     *  - an address where a contract lived, but was destroyed\r\n     * ====\r\n     */\r\n    function isContract(address account) internal view returns (bool) {\r\n        // This method relies on extcodesize, which returns 0 for contracts in\r\n        // construction, since the code is only stored at the end of the\r\n        // constructor execution.\r\n\r\n        uint256 size;\r\n        assembly {\r\n            size := extcodesize(account)\r\n        }\r\n        return size > 0;\r\n    }\r\n\r\n    /**\r\n     * @dev Replacement for Solidity's `transfer`: sends `amount` wei to\r\n     * `recipient`, forwarding all available gas and reverting on errors.\r\n     *\r\n     * https://eips.ethereum.org/EIPS/eip-1884[EIP1884] increases the gas cost\r\n     * of certain opcodes, possibly making contracts go over the 2300 gas limit\r\n     * imposed by `transfer`, making them unable to receive funds via\r\n     * `transfer`. {sendValue} removes this limitation.\r\n     *\r\n     * https://diligence.consensys.net/posts/2019/09/stop-using-soliditys-transfer-now/[Learn more].\r\n     *\r\n     * IMPORTANT: because control is transferred to `recipient`, care must be\r\n     * taken to not create reentrancy vulnerabilities. Consider using\r\n     * {ReentrancyGuard} or the\r\n     * https://solidity.readthedocs.io/en/v0.5.11/security-considerations.html#use-the-checks-effects-interactions-pattern[checks-effects-interactions pattern].\r\n     */\r\n    function sendValue(address payable recipient, uint256 amount) internal {\r\n        require(address(this).balance >= amount, \"Address: insufficient balance\");\r\n\r\n        (bool success, ) = recipient.call{value: amount}(\"\");\r\n        require(success, \"Address: unable to send value, recipient may have reverted\");\r\n    }\r\n\r\n    /**\r\n     * @dev Performs a Solidity function call using a low level `call`. A\r\n     * plain `call` is an unsafe replacement for a function call: use this\r\n     * function instead.\r\n     *\r\n     * If `target` reverts with a revert reason, it is bubbled up by this\r\n     * function (like regular Solidity function calls).\r\n     *\r\n     * Returns the raw returned data. To convert to the expected return value,\r\n     * use https://solidity.readthedocs.io/en/latest/units-and-global-variables.html?highlight=abi.decode#abi-encoding-and-decoding-functions[`abi.decode`].\r\n     *\r\n     * Requirements:\r\n     *\r\n     * - `target` must be a contract.\r\n     * - calling `target` with `data` must not revert.\r\n     *\r\n     * _Available since v3.1._\r\n     */\r\n    function functionCall(address target, bytes memory data) internal returns (bytes memory) {\r\n        return functionCall(target, data, \"Address: low-level call failed\");\r\n    }\r\n\r\n    /**\r\n     * @dev Same as {xref-Address-functionCall-address-bytes-}[`functionCall`], but with\r\n     * `errorMessage` as a fallback revert reason when `target` reverts.\r\n     *\r\n     * _Available since v3.1._\r\n     */\r\n    function functionCall(\r\n        address target,\r\n        bytes memory data,\r\n        string memory errorMessage\r\n    ) internal returns (bytes memory) {\r\n        return functionCallWithValue(target, data, 0, errorMessage);\r\n    }\r\n\r\n    /**\r\n     * @dev Same as {xref-Address-functionCall-address-bytes-}[`functionCall`],\r\n     * but also transferring `value` wei to `target`.\r\n     *\r\n     * Requirements:\r\n     *\r\n     * - the calling contract must have an ETH balance of at least `value`.\r\n     * - the called Solidity function must be `payable`.\r\n     *\r\n     * _Available since v3.1._\r\n     */\r\n    function functionCallWithValue(\r\n        address target,\r\n        bytes memory data,\r\n        uint256 value\r\n    ) internal returns (bytes memory) {\r\n        return functionCallWithValue(target, data, value, \"Address: low-level call with value failed\");\r\n    }\r\n\r\n    /**\r\n     * @dev Same as {xref-Address-functionCallWithValue-address-bytes-uint256-}[`functionCallWithValue`], but\r\n     * with `errorMessage` as a fallback revert reason when `target` reverts.\r\n     *\r\n     * _Available since v3.1._\r\n     */\r\n    function functionCallWithValue(\r\n        address target,\r\n        bytes memory data,\r\n        uint256 value,\r\n        string memory errorMessage\r\n    ) internal returns (bytes memory) {\r\n        require(address(this).balance >= value, \"Address: insufficient balance for call\");\r\n        require(isContract(target), \"Address: call to non-contract\");\r\n\r\n        (bool success, bytes memory returndata) = target.call{value: value}(data);\r\n        return verifyCallResult(success, returndata, errorMessage);\r\n    }\r\n\r\n    /**\r\n     * @dev Same as {xref-Address-functionCall-address-bytes-}[`functionCall`],\r\n     * but performing a static call.\r\n     *\r\n     * _Available since v3.3._\r\n     */\r\n    function functionStaticCall(address target, bytes memory data) internal view returns (bytes memory) {\r\n        return functionStaticCall(target, data, \"Address: low-level static call failed\");\r\n    }\r\n\r\n    /**\r\n     * @dev Same as {xref-Address-functionCall-address-bytes-string-}[`functionCall`],\r\n     * but performing a static call.\r\n     *\r\n     * _Available since v3.3._\r\n     */\r\n    function functionStaticCall(\r\n        address target,\r\n        bytes memory data,\r\n        string memory errorMessage\r\n    ) internal view returns (bytes memory) {\r\n        require(isContract(target), \"Address: static call to non-contract\");\r\n\r\n        (bool success, bytes memory returndata) = target.staticcall(data);\r\n        return verifyCallResult(success, returndata, errorMessage);\r\n    }\r\n\r\n    /**\r\n     * @dev Same as {xref-Address-functionCall-address-bytes-}[`functionCall`],\r\n     * but performing a delegate call.\r\n     *\r\n     * _Available since v3.4._\r\n     */\r\n    function functionDelegateCall(address target, bytes memory data) internal returns (bytes memory) {\r\n        return functionDelegateCall(target, data, \"Address: low-level delegate call failed\");\r\n    }\r\n\r\n    /**\r\n     * @dev Same as {xref-Address-functionCall-address-bytes-string-}[`functionCall`],\r\n     * but performing a delegate call.\r\n     *\r\n     * _Available since v3.4._\r\n     */\r\n    function functionDelegateCall(\r\n        address target,\r\n        bytes memory data,\r\n        string memory errorMessage\r\n    ) internal returns (bytes memory) {\r\n        require(isContract(target), \"Address: delegate call to non-contract\");\r\n\r\n        (bool success, bytes memory returndata) = target.delegatecall(data);\r\n        return verifyCallResult(success, returndata, errorMessage);\r\n    }\r\n\r\n    /**\r\n     * @dev Tool to verifies that a low level call was successful, and revert if it wasn't, either by bubbling the\r\n     * revert reason using the provided one.\r\n     *\r\n     * _Available since v4.3._\r\n     */\r\n    function verifyCallResult(\r\n        bool success,\r\n        bytes memory returndata,\r\n        string memory errorMessage\r\n    ) internal pure returns (bytes memory) {\r\n        if (success) {\r\n            return returndata;\r\n        } else {\r\n            // Look for revert reason and bubble it up if present\r\n            if (returndata.length > 0) {\r\n                // The easiest way to bubble the revert reason is using memory via assembly\r\n\r\n                assembly {\r\n                    let returndata_size := mload(returndata)\r\n                    revert(add(32, returndata), returndata_size)\r\n                }\r\n            } else {\r\n                revert(errorMessage);\r\n            }\r\n        }\r\n    }\r\n}\r\n\r\n// File: @openzeppelin/contracts@4.4.2/token/ERC721/IERC721Receiver.sol\r\n\r\n\r\n// OpenZeppelin Contracts v4.4.1 (token/ERC721/IERC721Receiver.sol)\r\n\r\npragma solidity ^0.8.0;\r\n\r\n/**\r\n * @title ERC721 token receiver interface\r\n * @dev Interface for any contract that wants to support safeTransfers\r\n * from ERC721 asset contracts.\r\n */\r\ninterface IERC721Receiver {\r\n    /**\r\n     * @dev Whenever an {IERC721} `tokenId` token is transferred to this contract via {IERC721-safeTransferFrom}\r\n     * by `operator` from `from`, this function is called.\r\n     *\r\n     * It must return its Solidity selector to confirm the token transfer.\r\n     * If any other value is returned or the interface is not implemented by the recipient, the transfer will be reverted.\r\n     *\r\n     * The selector can be obtained in Solidity with `IERC721.onERC721Received.selector`.\r\n     */\r\n    function onERC721Received(\r\n        address operator,\r\n        address from,\r\n        uint256 tokenId,\r\n        bytes calldata data\r\n    ) external returns (bytes4);\r\n}\r\n\r\n// File: @openzeppelin/contracts@4.4.2/utils/introspection/IERC165.sol\r\n\r\n\r\n// OpenZeppelin Contracts v4.4.1 (utils/introspection/IERC165.sol)\r\n\r\npragma solidity ^0.8.0;\r\n\r\n/**\r\n * @dev Interface of the ERC165 standard, as defined in the\r\n * https://eips.ethereum.org/EIPS/eip-165[EIP].\r\n *\r\n * Implementers can declare support of contract interfaces, which can then be\r\n * queried by others ({ERC165Checker}).\r\n *\r\n * For an implementation, see {ERC165}.\r\n */\r\ninterface IERC165 {\r\n    /**\r\n     * @dev Returns true if this contract implements the interface defined by\r\n     * `interfaceId`. See the corresponding\r\n     * https://eips.ethereum.org/EIPS/eip-165#how-interfaces-are-identified[EIP section]\r\n     * to learn more about how these ids are created.\r\n     *\r\n     * This function call must use less than 30 000 gas.\r\n     */\r\n    function supportsInterface(bytes4 interfaceId) external view returns (bool);\r\n}\r\n\r\n// File: @openzeppelin/contracts@4.4.2/utils/introspection/ERC165.sol\r\n\r\n\r\n// OpenZeppelin Contracts v4.4.1 (utils/introspection/ERC165.sol)\r\n\r\npragma solidity ^0.8.0;\r\n\r\n\r\n/**\r\n * @dev Implementation of the {IERC165} interface.\r\n *\r\n * Contracts that want to implement ERC165 should inherit from this contract and override {supportsInterface} to check\r\n * for the additional interface id that will be supported. For example:\r\n *\r\n * ```solidity\r\n * function supportsInterface(bytes4 interfaceId) public view virtual override returns (bool) {\r\n *     return interfaceId == type(MyInterface).interfaceId || super.supportsInterface(interfaceId);\r\n * }\r\n * ```\r\n *\r\n * Alternatively, {ERC165Storage} provides an easier to use but more expensive implementation.\r\n */\r\nabstract contract ERC165 is IERC165 {\r\n    /**\r\n     * @dev See {IERC165-supportsInterface}.\r\n     */\r\n    function supportsInterface(bytes4 interfaceId) public view virtual override returns (bool) {\r\n        return interfaceId == type(IERC165).interfaceId;\r\n    }\r\n}\r\n\r\n// File: @openzeppelin/contracts@4.4.2/token/ERC721/IERC721.sol\r\n\r\n\r\n// OpenZeppelin Contracts v4.4.1 (token/ERC721/IERC721.sol)\r\n\r\npragma solidity ^0.8.0;\r\n\r\n\r\n/**\r\n * @dev Required interface of an ERC721 compliant contract.\r\n */\r\ninterface IERC721 is IERC165 {\r\n    /**\r\n     * @dev Emitted when `tokenId` token is transferred from `from` to `to`.\r\n     */\r\n    event Transfer(address indexed from, address indexed to, uint256 indexed tokenId);\r\n\r\n    /**\r\n     * @dev Emitted when `owner` enables `approved` to manage the `tokenId` token.\r\n     */\r\n    event Approval(address indexed owner, address indexed approved, uint256 indexed tokenId);\r\n\r\n    /**\r\n     * @dev Emitted when `owner` enables or disables (`approved`) `operator` to manage all of its assets.\r\n     */\r\n    event ApprovalForAll(address indexed owner, address indexed operator, bool approved);\r\n\r\n    /**\r\n     * @dev Returns the number of tokens in ``owner``'s account.\r\n     */\r\n    function balanceOf(address owner) external view returns (uint256 balance);\r\n\r\n    /**\r\n     * @dev Returns the owner of the `tokenId` token.\r\n     *\r\n     * Requirements:\r\n     *\r\n     * - `tokenId` must exist.\r\n     */\r\n    function ownerOf(uint256 tokenId) external view returns (address owner);\r\n\r\n    /**\r\n     * @dev Safely transfers `tokenId` token from `from` to `to`, checking first that contract recipients\r\n     * are aware of the ERC721 protocol to prevent tokens from being forever locked.\r\n     *\r\n     * Requirements:\r\n     *\r\n     * - `from` cannot be the zero address.\r\n     * - `to` cannot be the zero address.\r\n     * - `tokenId` token must exist and be owned by `from`.\r\n     * - If the caller is not `from`, it must be have been allowed to move this token by either {approve} or {setApprovalForAll}.\r\n     * - If `to` refers to a smart contract, it must implement {IERC721Receiver-onERC721Received}, which is called upon a safe transfer.\r\n     *\r\n     * Emits a {Transfer} event.\r\n     */\r\n    function safeTransferFrom(\r\n        address from,\r\n        address to,\r\n        uint256 tokenId\r\n    ) external;\r\n\r\n    /**\r\n     * @dev Transfers `tokenId` token from `from` to `to`.\r\n     *\r\n     * WARNING: Usage of this method is discouraged, use {safeTransferFrom} whenever possible.\r\n     *\r\n     * Requirements:\r\n     *\r\n     * - `from` cannot be the zero address.\r\n     * - `to` cannot be the zero address.\r\n     * - `tokenId` token must be owned by `from`.\r\n     * - If the caller is not `from`, it must be approved to move this token by either {approve} or {setApprovalForAll}.\r\n     *\r\n     * Emits a {Transfer} event.\r\n     */\r\n    function transferFrom(\r\n        address from,\r\n        address to,\r\n        uint256 tokenId\r\n    ) external;\r\n\r\n    /**\r\n     * @dev Gives permission to `to` to transfer `tokenId` token to another account.\r\n     * The approval is cleared when the token is transferred.\r\n     *\r\n     * Only a single account can be approved at a time, so approving the zero address clears previous approvals.\r\n     *\r\n     * Requirements:\r\n     *\r\n     * - The caller must own the token or be an approved operator.\r\n     * - `tokenId` must exist.\r\n     *\r\n     * Emits an {Approval} event.\r\n     */\r\n    function approve(address to, uint256 tokenId) external;\r\n\r\n    /**\r\n     * @dev Returns the account approved for `tokenId` token.\r\n     *\r\n     * Requirements:\r\n     *\r\n     * - `tokenId` must exist.\r\n     */\r\n    function getApproved(uint256 tokenId) external view returns (address operator);\r\n\r\n    /**\r\n     * @dev Approve or remove `operator` as an operator for the caller.\r\n     * Operators can call {transferFrom} or {safeTransferFrom} for any token owned by the caller.\r\n     *\r\n     * Requirements:\r\n     *\r\n     * - The `operator` cannot be the caller.\r\n     *\r\n     * Emits an {ApprovalForAll} event.\r\n     */\r\n    function setApprovalForAll(address operator, bool _approved) external;\r\n\r\n    /**\r\n     * @dev Returns if the `operator` is allowed to manage all of the assets of `owner`.\r\n     *\r\n     * See {setApprovalForAll}\r\n     */\r\n    function isApprovedForAll(address owner, address operator) external view returns (bool);\r\n\r\n    /**\r\n     * @dev Safely transfers `tokenId` token from `from` to `to`.\r\n     *\r\n     * Requirements:\r\n     *\r\n     * - `from` cannot be the zero address.\r\n     * - `to` cannot be the zero address.\r\n     * - `tokenId` token must exist and be owned by `from`.\r\n     * - If the caller is not `from`, it must be approved to move this token by either {approve} or {setApprovalForAll}.\r\n     * - If `to` refers to a smart contract, it must implement {IERC721Receiver-onERC721Received}, which is called upon a safe transfer.\r\n     *\r\n     * Emits a {Transfer} event.\r\n     */\r\n    function safeTransferFrom(\r\n        address from,\r\n        address to,\r\n        uint256 tokenId,\r\n        bytes calldata data\r\n    ) external;\r\n}\r\n\r\n// File: @openzeppelin/contracts@4.4.2/token/ERC721/extensions/IERC721Enumerable.sol\r\n\r\n\r\n// OpenZeppelin Contracts v4.4.1 (token/ERC721/extensions/IERC721Enumerable.sol)\r\n\r\npragma solidity ^0.8.0;\r\n\r\n\r\n/**\r\n * @title ERC-721 Non-Fungible Token Standard, optional enumeration extension\r\n * @dev See https://eips.ethereum.org/EIPS/eip-721\r\n */\r\ninterface IERC721Enumerable is IERC721 {\r\n    /**\r\n     * @dev Returns the total amount of tokens stored by the contract.\r\n     */\r\n    function totalSupply() external view returns (uint256);\r\n\r\n    /**\r\n     * @dev Returns a token ID owned by `owner` at a given `index` of its token list.\r\n     * Use along with {balanceOf} to enumerate all of ``owner``'s tokens.\r\n     */\r\n    function tokenOfOwnerByIndex(address owner, uint256 index) external view returns (uint256 tokenId);\r\n\r\n    /**\r\n     * @dev Returns a token ID at a given `index` of all the tokens stored by the contract.\r\n     * Use along with {totalSupply} to enumerate all tokens.\r\n     */\r\n    function tokenByIndex(uint256 index) external view returns (uint256);\r\n}\r\n\r\n// File: @openzeppelin/contracts@4.4.2/token/ERC721/extensions/IERC721Metadata.sol\r\n\r\n\r\n// OpenZeppelin Contracts v4.4.1 (token/ERC721/extensions/IERC721Metadata.sol)\r\n\r\npragma solidity ^0.8.0;\r\n\r\n\r\n/**\r\n * @title ERC-721 Non-Fungible Token Standard, optional metadata extension\r\n * @dev See https://eips.ethereum.org/EIPS/eip-721\r\n */\r\ninterface IERC721Metadata is IERC721 {\r\n    /**\r\n     * @dev Returns the token collection name.\r\n     */\r\n    function name() external view returns (string memory);\r\n\r\n    /**\r\n     * @dev Returns the token collection symbol.\r\n     */\r\n    function symbol() external view returns (string memory);\r\n\r\n    /**\r\n     * @dev Returns the Uniform Resource Identifier (URI) for `tokenId` token.\r\n     */\r\n    function tokenURI(uint256 tokenId) external view returns (string memory);\r\n}\r\n\r\n// File: @openzeppelin/contracts@4.4.2/token/ERC721/ERC721.sol\r\n\r\n\r\n// OpenZeppelin Contracts v4.4.1 (token/ERC721/ERC721.sol)\r\n\r\npragma solidity ^0.8.0;\r\n\r\n\r\n\r\n\r\n\r\n\r\n\r\n\r\n/**\r\n * @dev Implementation of https://eips.ethereum.org/EIPS/eip-721[ERC721] Non-Fungible Token Standard, including\r\n * the Metadata extension, but not including the Enumerable extension, which is available separately as\r\n * {ERC721Enumerable}.\r\n */\r\ncontract ERC721 is Context, ERC165, IERC721, IERC721Metadata {\r\n    using Address for address;\r\n    using Strings for uint256;\r\n    \r\n    // Token name\r\n    string private _name;\r\n\r\n    // Token symbol\r\n    string private _symbol;\r\n\r\n    // Mapping from token ID to owner address\r\n    mapping(uint256 => address) private _owners;\r\n\r\n    // Mapping owner address to token count\r\n    mapping(address => uint256) private _balances;\r\n\r\n    // Mapping from token ID to approved address\r\n    mapping(uint256 => address) private _tokenApprovals;\r\n\r\n    // Mapping from owner to operator approvals\r\n    mapping(address => mapping(address => bool)) private _operatorApprovals;\r\n\r\n    string internal extension = \".json\";\r\n\r\n    /**\r\n     * @dev Initializes the contract by setting a `name` and a `symbol` to the token collection.\r\n     */\r\n    constructor(string memory name_, string memory symbol_) {\r\n        _name = name_;\r\n        _symbol = symbol_;\r\n    }\r\n\r\n    /**\r\n     * @dev See {IERC165-supportsInterface}.\r\n     */\r\n    function supportsInterface(bytes4 interfaceId) public view virtual override(ERC165, IERC165) returns (bool) {\r\n        return\r\n            interfaceId == type(IERC721).interfaceId ||\r\n            interfaceId == type(IERC721Metadata).interfaceId ||\r\n            super.supportsInterface(interfaceId);\r\n    }\r\n\r\n    /**\r\n     * @dev See {IERC721-balanceOf}.\r\n     */\r\n    function balanceOf(address owner) public view virtual override returns (uint256) {\r\n        require(owner != address(0), \"ERC721: balance query for the zero address\");\r\n        return _balances[owner];\r\n    }\r\n\r\n    /**\r\n     * @dev See {IERC721-ownerOf}.\r\n     */\r\n    function ownerOf(uint256 tokenId) public view virtual override returns (address) {\r\n        address owner = _owners[tokenId];\r\n        require(owner != address(0), \"ERC721: owner query for nonexistent token\");\r\n        return owner;\r\n    }\r\n\r\n    /**\r\n     * @dev See {IERC721Metadata-name}.\r\n     */\r\n    function name() public view virtual override returns (string memory) {\r\n        return _name;\r\n    }\r\n\r\n    /**\r\n     * @dev See {IERC721Metadata-symbol}.\r\n     */\r\n    function symbol() public view virtual override returns (string memory) {\r\n        return _symbol;\r\n    }\r\n\r\n    /**\r\n     * @dev See {IERC721Metadata-tokenURI}.\r\n     */\r\n    function tokenURI(uint256 tokenId) public view virtual override returns (string memory) {\r\n        require(_exists(tokenId), \"ERC721Metadata: URI query for nonexistent token\");\r\n\r\n        string memory baseURI = _baseURI();\r\n        string memory ext = extension;\r\n        return bytes(baseURI).length > 0 ? string(abi.encodePacked(baseURI, tokenId.toString(), ext)) : \"\";\r\n    }\r\n\r\n    /**\r\n     * @dev Base URI for computing {tokenURI}. If set, the resulting URI for each\r\n     * token will be the concatenation of the `baseURI` and the `tokenId`. Empty\r\n     * by default, can be overriden in child contracts.\r\n     */\r\n    function _baseURI() internal view virtual returns (string memory) {\r\n        return \"\";\r\n    }\r\n\r\n    /**\r\n     * @dev See {IERC721-approve}.\r\n     */\r\n    function approve(address to, uint256 tokenId) public virtual override {\r\n        address owner = ERC721.ownerOf(tokenId);\r\n        require(to != owner, \"ERC721: approval to current owner\");\r\n\r\n        require(\r\n            _msgSender() == owner || isApprovedForAll(owner, _msgSender()),\r\n            \"ERC721: approve caller is not owner nor approved for all\"\r\n        );\r\n\r\n        _approve(to, tokenId);\r\n    }\r\n\r\n    /**\r\n     * @dev See {IERC721-getApproved}.\r\n     */\r\n    function getApproved(uint256 tokenId) public view virtual override returns (address) {\r\n        require(_exists(tokenId), \"ERC721: approved query for nonexistent token\");\r\n\r\n        return _tokenApprovals[tokenId];\r\n    }\r\n\r\n    /**\r\n     * @dev See {IERC721-setApprovalForAll}.\r\n     */\r\n    function setApprovalForAll(address operator, bool approved) public virtual override {\r\n        _setApprovalForAll(_msgSender(), operator, approved);\r\n    }\r\n\r\n    /**\r\n     * @dev See {IERC721-isApprovedForAll}.\r\n     */\r\n    function isApprovedForAll(address owner, address operator) public view virtual override returns (bool) {\r\n        return _operatorApprovals[owner][operator];\r\n    }\r\n\r\n    /**\r\n     * @dev See {IERC721-transferFrom}.\r\n     */\r\n    function transferFrom(\r\n        address from,\r\n        address to,\r\n        uint256 tokenId\r\n    ) public virtual override {\r\n        //solhint-disable-next-line max-line-length\r\n        require(_isApprovedOrOwner(_msgSender(), tokenId), \"ERC721: transfer caller is not owner nor approved\");\r\n\r\n        _transfer(from, to, tokenId);\r\n    }\r\n\r\n    /**\r\n     * @dev See {IERC721-safeTransferFrom}.\r\n     */\r\n    function safeTransferFrom(\r\n        address from,\r\n        address to,\r\n        uint256 tokenId\r\n    ) public virtual override {\r\n        safeTransferFrom(from, to, tokenId, \"\");\r\n    }\r\n\r\n    /**\r\n     * @dev See {IERC721-safeTransferFrom}.\r\n     */\r\n    function safeTransferFrom(\r\n        address from,\r\n        address to,\r\n        uint256 tokenId,\r\n        bytes memory _data\r\n    ) public virtual override {\r\n        require(_isApprovedOrOwner(_msgSender(), tokenId), \"ERC721: transfer caller is not owner nor approved\");\r\n        _safeTransfer(from, to, tokenId, _data);\r\n    }\r\n\r\n    /**\r\n     * @dev Safely transfers `tokenId` token from `from` to `to`, checking first that contract recipients\r\n     * are aware of the ERC721 protocol to prevent tokens from being forever locked.\r\n     *\r\n     * `_data` is additional data, it has no specified format and it is sent in call to `to`.\r\n     *\r\n     * This internal function is equivalent to {safeTransferFrom}, and can be used to e.g.\r\n     * implement alternative mechanisms to perform token transfer, such as signature-based.\r\n     *\r\n     * Requirements:\r\n     *\r\n     * - `from` cannot be the zero address.\r\n     * - `to` cannot be the zero address.\r\n     * - `tokenId` token must exist and be owned by `from`.\r\n     * - If `to` refers to a smart contract, it must implement {IERC721Receiver-onERC721Received}, which is called upon a safe transfer.\r\n     *\r\n     * Emits a {Transfer} event.\r\n     */\r\n    function _safeTransfer(\r\n        address from,\r\n        address to,\r\n        uint256 tokenId,\r\n        bytes memory _data\r\n    ) internal virtual {\r\n        _transfer(from, to, tokenId);\r\n        require(_checkOnERC721Received(from, to, tokenId, _data), \"ERC721: transfer to non ERC721Receiver implementer\");\r\n    }\r\n\r\n    /**\r\n     * @dev Returns whether `tokenId` exists.\r\n     *\r\n     * Tokens can be managed by their owner or approved accounts via {approve} or {setApprovalForAll}.\r\n     *\r\n     * Tokens start existing when they are minted (`_mint`),\r\n     * and stop existing when they are burned (`_burn`).\r\n     */\r\n    function _exists(uint256 tokenId) internal view virtual returns (bool) {\r\n        return _owners[tokenId] != address(0);\r\n    }\r\n\r\n    /**\r\n     * @dev Returns whether `spender` is allowed to manage `tokenId`.\r\n     *\r\n     * Requirements:\r\n     *\r\n     * - `tokenId` must exist.\r\n     */\r\n    function _isApprovedOrOwner(address spender, uint256 tokenId) internal view virtual returns (bool) {\r\n        require(_exists(tokenId), \"ERC721: operator query for nonexistent token\");\r\n        address owner = ERC721.ownerOf(tokenId);\r\n        return (spender == owner || getApproved(tokenId) == spender || isApprovedForAll(owner, spender));\r\n    }\r\n\r\n    /**\r\n     * @dev Safely mints `tokenId` and transfers it to `to`.\r\n     *\r\n     * Requirements:\r\n     *\r\n     * - `tokenId` must not exist.\r\n     * - If `to` refers to a smart contract, it must implement {IERC721Receiver-onERC721Received}, which is called upon a safe transfer.\r\n     *\r\n     * Emits a {Transfer} event.\r\n     */\r\n    function _safeMint(address to, uint256 tokenId) internal virtual {\r\n        _safeMint(to, tokenId, \"\");\r\n    }\r\n\r\n    /**\r\n     * @dev Same as {xref-ERC721-_safeMint-address-uint256-}[`_safeMint`], with an additional `data` parameter which is\r\n     * forwarded in {IERC721Receiver-onERC721Received} to contract recipients.\r\n     */\r\n    function _safeMint(\r\n        address to,\r\n        uint256 tokenId,\r\n        bytes memory _data\r\n    ) internal virtual {\r\n        _mint(to, tokenId);\r\n        require(\r\n            _checkOnERC721Received(address(0), to, tokenId, _data),\r\n            \"ERC721: transfer to non ERC721Receiver implementer\"\r\n        );\r\n    }\r\n\r\n    /**\r\n     * @dev Mints `tokenId` and transfers it to `to`.\r\n     *\r\n     * WARNING: Usage of this method is discouraged, use {_safeMint} whenever possible\r\n     *\r\n     * Requirements:\r\n     *\r\n     * - `tokenId` must not exist.\r\n     * - `to` cannot be the zero address.\r\n     *\r\n     * Emits a {Transfer} event.\r\n     */\r\n    function _mint(address to, uint256 tokenId) internal virtual {\r\n        require(to != address(0), \"ERC721: mint to the zero address\");\r\n        require(!_exists(tokenId), \"ERC721: token already minted\");\r\n\r\n        _beforeTokenTransfer(address(0), to, tokenId);\r\n\r\n        _balances[to] += 1;\r\n        _owners[tokenId] = to;\r\n\r\n        emit Transfer(address(0), to, tokenId);\r\n    }\r\n\r\n    /**\r\n     * @dev Destroys `tokenId`.\r\n     * The approval is cleared when the token is burned.\r\n     *\r\n     * Requirements:\r\n     *\r\n     * - `tokenId` must exist.\r\n     *\r\n     * Emits a {Transfer} event.\r\n     */\r\n    function _burn(uint256 tokenId) internal virtual {\r\n        address owner = ERC721.ownerOf(tokenId);\r\n\r\n        _beforeTokenTransfer(owner, address(0), tokenId);\r\n\r\n        // Clear approvals\r\n        _approve(address(0), tokenId);\r\n\r\n        _balances[owner] -= 1;\r\n        delete _owners[tokenId];\r\n\r\n        emit Transfer(owner, address(0), tokenId);\r\n    }\r\n\r\n    /**\r\n     * @dev Transfers `tokenId` from `from` to `to`.\r\n     *  As opposed to {transferFrom}, this imposes no restrictions on msg.sender.\r\n     *\r\n     * Requirements:\r\n     *\r\n     * - `to` cannot be the zero address.\r\n     * - `tokenId` token must be owned by `from`.\r\n     *\r\n     * Emits a {Transfer} event.\r\n     */\r\n    function _transfer(\r\n        address from,\r\n        address to,\r\n        uint256 tokenId\r\n    ) internal virtual {\r\n        require(ERC721.ownerOf(tokenId) == from, \"ERC721: transfer of token that is not own\");\r\n        require(to != address(0), \"ERC721: transfer to the zero address\");\r\n\r\n        _beforeTokenTransfer(from, to, tokenId);\r\n\r\n        // Clear approvals from the previous owner\r\n        _approve(address(0), tokenId);\r\n\r\n        _balances[from] -= 1;\r\n        _balances[to] += 1;\r\n        _owners[tokenId] = to;\r\n\r\n        emit Transfer(from, to, tokenId);\r\n    }\r\n\r\n    /**\r\n     * @dev Approve `to` to operate on `tokenId`\r\n     *\r\n     * Emits a {Approval} event.\r\n     */\r\n    function _approve(address to, uint256 tokenId) internal virtual {\r\n        _tokenApprovals[tokenId] = to;\r\n        emit Approval(ERC721.ownerOf(tokenId), to, tokenId);\r\n    }\r\n\r\n    /**\r\n     * @dev Approve `operator` to operate on all of `owner` tokens\r\n     *\r\n     * Emits a {ApprovalForAll} event.\r\n     */\r\n    function _setApprovalForAll(\r\n        address owner,\r\n        address operator,\r\n        bool approved\r\n    ) internal virtual {\r\n        require(owner != operator, \"ERC721: approve to caller\");\r\n        _operatorApprovals[owner][operator] = approved;\r\n        emit ApprovalForAll(owner, operator, approved);\r\n    }\r\n\r\n    /**\r\n     * @dev Internal function to invoke {IERC721Receiver-onERC721Received} on a target address.\r\n     * The call is not executed if the target address is not a contract.\r\n     *\r\n     * @param from address representing the previous owner of the given token ID\r\n     * @param to target address that will receive the tokens\r\n     * @param tokenId uint256 ID of the token to be transferred\r\n     * @param _data bytes optional data to send along with the call\r\n     * @return bool whether the call correctly returned the expected magic value\r\n     */\r\n    function _checkOnERC721Received(\r\n        address from,\r\n        address to,\r\n        uint256 tokenId,\r\n        bytes memory _data\r\n    ) private returns (bool) {\r\n        if (to.isContract()) {\r\n            try IERC721Receiver(to).onERC721Received(_msgSender(), from, tokenId, _data) returns (bytes4 retval) {\r\n                return retval == IERC721Receiver.onERC721Received.selector;\r\n            } catch (bytes memory reason) {\r\n                if (reason.length == 0) {\r\n                    revert(\"ERC721: transfer to non ERC721Receiver implementer\");\r\n                } else {\r\n                    assembly {\r\n                        revert(add(32, reason), mload(reason))\r\n                    }\r\n                }\r\n            }\r\n        } else {\r\n            return true;\r\n        }\r\n    }\r\n\r\n    /**\r\n     * @dev Hook that is called before any token transfer. This includes minting\r\n     * and burning.\r\n     *\r\n     * Calling conditions:\r\n     *\r\n     * - When `from` and `to` are both non-zero, ``from``'s `tokenId` will be\r\n     * transferred to `to`.\r\n     * - When `from` is zero, `tokenId` will be minted for `to`.\r\n     * - When `to` is zero, ``from``'s `tokenId` will be burned.\r\n     * - `from` and `to` are never both zero.\r\n     *\r\n     * To learn more about hooks, head to xref:ROOT:extending-contracts.adoc#using-hooks[Using Hooks].\r\n     */\r\n    function _beforeTokenTransfer(\r\n        address from,\r\n        address to,\r\n        uint256 tokenId\r\n    ) internal virtual {}\r\n}\r\n\r\n// File: @openzeppelin/contracts@4.4.2/token/ERC721/extensions/ERC721Burnable.sol\r\n\r\n\r\n// OpenZeppelin Contracts v4.4.1 (token/ERC721/extensions/ERC721Burnable.sol)\r\n\r\npragma solidity ^0.8.0;\r\n\r\n\r\n\r\n/**\r\n * @title ERC721 Burnable Token\r\n * @dev ERC721 Token that can be irreversibly burned (destroyed).\r\n */\r\nabstract contract ERC721Burnable is Context, ERC721 {\r\n    /**\r\n     * @dev Burns `tokenId`. See {ERC721-_burn}.\r\n     *\r\n     * Requirements:\r\n     *\r\n     * - The caller must own `tokenId` or be an approved operator.\r\n     */\r\n    function burn(uint256 tokenId) public virtual {\r\n        //solhint-disable-next-line max-line-length\r\n        require(_isApprovedOrOwner(_msgSender(), tokenId), \"ERC721Burnable: caller is not owner nor approved\");\r\n        _burn(tokenId);\r\n    }\r\n}\r\n\r\n// File: @openzeppelin/contracts@4.4.2/token/ERC721/extensions/ERC721URIStorage.sol\r\n\r\n\r\n// OpenZeppelin Contracts v4.4.1 (token/ERC721/extensions/ERC721URIStorage.sol)\r\n\r\npragma solidity ^0.8.0;\r\n\r\n\r\n/**\r\n * @dev ERC721 token with storage based token URI management.\r\n */\r\nabstract contract ERC721URIStorage is ERC721 {\r\n    using Strings for uint256;\r\n\r\n    // Optional mapping for token URIs\r\n    mapping(uint256 => string) private _tokenURIs;\r\n\r\n    /**\r\n     * @dev See {IERC721Metadata-tokenURI}.\r\n     */\r\n    function tokenURI(uint256 tokenId) public view virtual override returns (string memory) {\r\n        require(_exists(tokenId), \"ERC721URIStorage: URI query for nonexistent token\");\r\n\r\n        string memory _tokenURI = _tokenURIs[tokenId];\r\n        string memory base = _baseURI();\r\n\r\n        // If there is no base URI, return the token URI.\r\n        if (bytes(base).length == 0) {\r\n            return _tokenURI;\r\n        }\r\n        // If both are set, concatenate the baseURI and tokenURI (via abi.encodePacked).\r\n        if (bytes(_tokenURI).length > 0) {\r\n            return string(abi.encodePacked(base, _tokenURI));\r\n        }\r\n\r\n        return super.tokenURI(tokenId);\r\n    }\r\n\r\n    /**\r\n     * @dev Sets `_tokenURI` as the tokenURI of `tokenId`.\r\n     *\r\n     * Requirements:\r\n     *\r\n     * - `tokenId` must exist.\r\n     */\r\n    function _setTokenURI(uint256 tokenId, string memory _tokenURI) internal virtual {\r\n        require(_exists(tokenId), \"ERC721URIStorage: URI set of nonexistent token\");\r\n        _tokenURIs[tokenId] = _tokenURI;\r\n    }\r\n\r\n    /**\r\n     * @dev Destroys `tokenId`.\r\n     * The approval is cleared when the token is burned.\r\n     *\r\n     * Requirements:\r\n     *\r\n     * - `tokenId` must exist.\r\n     *\r\n     * Emits a {Transfer} event.\r\n     */\r\n    function _burn(uint256 tokenId) internal virtual override {\r\n        super._burn(tokenId);\r\n\r\n        if (bytes(_tokenURIs[tokenId]).length != 0) {\r\n            delete _tokenURIs[tokenId];\r\n        }\r\n    }\r\n}\r\n\r\n// File: @openzeppelin/contracts@4.4.2/token/ERC721/extensions/ERC721Enumerable.sol\r\n\r\n\r\n// OpenZeppelin Contracts v4.4.1 (token/ERC721/extensions/ERC721Enumerable.sol)\r\n\r\npragma solidity ^0.8.0;\r\n\r\n\r\n\r\n/**\r\n * @dev This implements an optional extension of {ERC721} defined in the EIP that adds\r\n * enumerability of all the token ids in the contract as well as all token ids owned by each\r\n * account.\r\n */\r\nabstract contract ERC721Enumerable is ERC721, IERC721Enumerable {\r\n    // Mapping from owner to list of owned token IDs\r\n    mapping(address => mapping(uint256 => uint256)) private _ownedTokens;\r\n\r\n    // Mapping from token ID to index of the owner tokens list\r\n    mapping(uint256 => uint256) private _ownedTokensIndex;\r\n\r\n    // Array with all token ids, used for enumeration\r\n    uint256[] private _allTokens;\r\n\r\n    // Mapping from token id to position in the allTokens array\r\n    mapping(uint256 => uint256) private _allTokensIndex;\r\n\r\n    /**\r\n     * @dev See {IERC165-supportsInterface}.\r\n     */\r\n    function supportsInterface(bytes4 interfaceId) public view virtual override(IERC165, ERC721) returns (bool) {\r\n        return interfaceId == type(IERC721Enumerable).interfaceId || super.supportsInterface(interfaceId);\r\n    }\r\n\r\n    /**\r\n     * @dev See {IERC721Enumerable-tokenOfOwnerByIndex}.\r\n     */\r\n    function tokenOfOwnerByIndex(address owner, uint256 index) public view virtual override returns (uint256) {\r\n        require(index < ERC721.balanceOf(owner), \"ERC721Enumerable: owner index out of bounds\");\r\n        return _ownedTokens[owner][index];\r\n    }\r\n\r\n    /**\r\n     * @dev See {IERC721Enumerable-totalSupply}.\r\n     */\r\n    function totalSupply() public view virtual override returns (uint256) {\r\n        return _allTokens.length;\r\n    }\r\n\r\n    /**\r\n     * @dev See {IERC721Enumerable-tokenByIndex}.\r\n     */\r\n    function tokenByIndex(uint256 index) public view virtual override returns (uint256) {\r\n        require(index < ERC721Enumerable.totalSupply(), \"ERC721Enumerable: global index out of bounds\");\r\n        return _allTokens[index];\r\n    }\r\n\r\n    /**\r\n     * @dev Hook that is called before any token transfer. This includes minting\r\n     * and burning.\r\n     *\r\n     * Calling conditions:\r\n     *\r\n     * - When `from` and `to` are both non-zero, ``from``'s `tokenId` will be\r\n     * transferred to `to`.\r\n     * - When `from` is zero, `tokenId` will be minted for `to`.\r\n     * - When `to` is zero, ``from``'s `tokenId` will be burned.\r\n     * - `from` cannot be the zero address.\r\n     * - `to` cannot be the zero address.\r\n     *\r\n     * To learn more about hooks, head to xref:ROOT:extending-contracts.adoc#using-hooks[Using Hooks].\r\n     */\r\n    function _beforeTokenTransfer(\r\n        address from,\r\n        address to,\r\n        uint256 tokenId\r\n    ) internal virtual override {\r\n        super._beforeTokenTransfer(from, to, tokenId);\r\n\r\n        if (from == address(0)) {\r\n            _addTokenToAllTokensEnumeration(tokenId);\r\n        } else if (from != to) {\r\n            _removeTokenFromOwnerEnumeration(from, tokenId);\r\n        }\r\n        if (to == address(0)) {\r\n            _removeTokenFromAllTokensEnumeration(tokenId);\r\n        } else if (to != from) {\r\n            _addTokenToOwnerEnumeration(to, tokenId);\r\n        }\r\n    }\r\n\r\n    /**\r\n     * @dev Private function to add a token to this extension's ownership-tracking data structures.\r\n     * @param to address representing the new owner of the given token ID\r\n     * @param tokenId uint256 ID of the token to be added to the tokens list of the given address\r\n     */\r\n    function _addTokenToOwnerEnumeration(address to, uint256 tokenId) private {\r\n        uint256 length = ERC721.balanceOf(to);\r\n        _ownedTokens[to][length] = tokenId;\r\n        _ownedTokensIndex[tokenId] = length;\r\n    }\r\n\r\n    /**\r\n     * @dev Private function to add a token to this extension's token tracking data structures.\r\n     * @param tokenId uint256 ID of the token to be added to the tokens list\r\n     */\r\n    function _addTokenToAllTokensEnumeration(uint256 tokenId) private {\r\n        _allTokensIndex[tokenId] = _allTokens.length;\r\n        _allTokens.push(tokenId);\r\n    }\r\n\r\n    /**\r\n     * @dev Private function to remove a token from this extension's ownership-tracking data structures. Note that\r\n     * while the token is not assigned a new owner, the `_ownedTokensIndex` mapping is _not_ updated: this allows for\r\n     * gas optimizations e.g. when performing a transfer operation (avoiding double writes).\r\n     * This has O(1) time complexity, but alters the order of the _ownedTokens array.\r\n     * @param from address representing the previous owner of the given token ID\r\n     * @param tokenId uint256 ID of the token to be removed from the tokens list of the given address\r\n     */\r\n    function _removeTokenFromOwnerEnumeration(address from, uint256 tokenId) private {\r\n        // To prevent a gap in from's tokens array, we store the last token in the index of the token to delete, and\r\n        // then delete the last slot (swap and pop).\r\n\r\n        uint256 lastTokenIndex = ERC721.balanceOf(from) - 1;\r\n        uint256 tokenIndex = _ownedTokensIndex[tokenId];\r\n\r\n        // When the token to delete is the last token, the swap operation is unnecessary\r\n        if (tokenIndex != lastTokenIndex) {\r\n            uint256 lastTokenId = _ownedTokens[from][lastTokenIndex];\r\n\r\n            _ownedTokens[from][tokenIndex] = lastTokenId; // Move the last token to the slot of the to-delete token\r\n            _ownedTokensIndex[lastTokenId] = tokenIndex; // Update the moved token's index\r\n        }\r\n\r\n        // This also deletes the contents at the last position of the array\r\n        delete _ownedTokensIndex[tokenId];\r\n        delete _ownedTokens[from][lastTokenIndex];\r\n    }\r\n\r\n    /**\r\n     * @dev Private function to remove a token from this extension's token tracking data structures.\r\n     * This has O(1) time complexity, but alters the order of the _allTokens array.\r\n     * @param tokenId uint256 ID of the token to be removed from the tokens list\r\n     */\r\n    function _removeTokenFromAllTokensEnumeration(uint256 tokenId) private {\r\n        // To prevent a gap in the tokens array, we store the last token in the index of the token to delete, and\r\n        // then delete the last slot (swap and pop).\r\n\r\n        uint256 lastTokenIndex = _allTokens.length - 1;\r\n        uint256 tokenIndex = _allTokensIndex[tokenId];\r\n\r\n        // When the token to delete is the last token, the swap operation is unnecessary. However, since this occurs so\r\n        // rarely (when the last minted token is burnt) that we still do the swap here to avoid the gas cost of adding\r\n        // an 'if' statement (like in _removeTokenFromOwnerEnumeration)\r\n        uint256 lastTokenId = _allTokens[lastTokenIndex];\r\n\r\n        _allTokens[tokenIndex] = lastTokenId; // Move the last token to the slot of the to-delete token\r\n        _allTokensIndex[lastTokenId] = tokenIndex; // Update the moved token's index\r\n\r\n        // This also deletes the contents at the last position of the array\r\n        delete _allTokensIndex[tokenId];\r\n        _allTokens.pop();\r\n    }\r\n}\r\n\r\n// File: contract-a484601051.sol\r\n\r\n\r\npragma solidity ^0.8.2;\r\n\r\ncontract Karachiite is ERC721, ERC721Enumerable, ERC721URIStorage, Pausable, Ownable, ERC721Burnable {\r\n    using Counters for Counters.Counter;\r\n\r\n    Counters.Counter private _tokenIdCounter;\r\n    uint256 private NFTPrice;\r\n    uint256 private NFTMaxSupply;\r\n    uint256 private MaxCap = 5;\r\n\r\n    constructor() ERC721(\"Karachiite\", \"KHI\") {\r\n        NFTPrice =  0.01 ether;                    //_NFTPrice * 10**16;   // 0.01 eth or 10 finney\r\n        NFTMaxSupply = 25;\r\n        mintNFTatDeployement(10);\r\n    }\r\n\r\n    modifier maxSupply(){\r\n        require(totalSupply() < NFTMaxSupply ,\"NFT: Max Supply achived\");\r\n        _;\r\n    }   \r\n\r\n    fallback() external payable {}\r\n    receive() external payable {}\r\n\r\n    function _baseURI() internal pure override returns (string memory) {\r\n        return \"https://gateway.pinata.cloud/ipfs/QmP439iE4W9wVST2d2c2hE58FqUtRgHcLaJRaiiPP669q4/\";\r\n    }\r\n\r\n    function setNFTPrice(uint256 NFTPrice_) public onlyOwner() {\r\n       NFTPrice = NFTPrice_ * 10**16;       \r\n    }\r\n   \r\n   function getNFTPrice() public view returns(uint256) {\r\n       return NFTPrice;\r\n    }\r\n\r\n    function setMaxCap(uint256 maxCap_) public onlyOwner {\r\n       MaxCap = maxCap_;       \r\n    }\r\n\r\n    function _maxSupply() public view returns(uint256) {\r\n       return NFTMaxSupply;\r\n    }\r\n\r\n    function pause() public onlyOwner {\r\n        _pause();\r\n    }\r\n\r\n    function unpause() public onlyOwner {\r\n        _unpause();\r\n    }\r\n\r\n    function buyNFT(address to) public payable maxSupply {\r\n        require(msg.value == NFTPrice && msg.sender != address(0),\"NFT: NFTPrice VS Value\");\r\n        string memory uri = \"\";\r\n        mintNFT(to, uri);\r\n    }\r\n\r\n    function buyNFTs(address to, uint256 _countNfts) public payable maxSupply{\r\n        uint NFTsPrice = NFTPrice * _countNfts;\r\n        require(\r\n            msg.value == NFTsPrice && \r\n            msg.sender != address(0) &&\r\n            _countNfts <= MaxCap &&\r\n            NFTMaxSupply >= totalSupply() + _countNfts,\"NFT: NFTPrice VS Value and Max Supply\");\r\n        \r\n        for(uint i = 0; i < _countNfts; i++ ){\r\n            string memory uri = \"\";\r\n            mintNFT(to, uri);\r\n        }\r\n    }\r\n    \r\n    function mintNFTatDeployement(uint256 _countNfts) internal onlyOwner {\r\n        require(_countNfts > 0 && NFTMaxSupply >= totalSupply() + _countNfts, \"NFT: Check Max Supply\" );\r\n        for(uint i = 0; i < _countNfts; i++ ){\r\n        string memory uri = \"\";\r\n        mintNFT(msg.sender, uri);\r\n        }\r\n    }\r\n\r\n    function safeMint(address to, string memory uri) public onlyOwner maxSupply{\r\n        mintNFT(to, uri);\r\n    }\r\n\r\n    function safeMints(address to, string memory uri, uint256 _countNfts) public onlyOwner maxSupply{\r\n        require(_countNfts > 0 && NFTMaxSupply >= totalSupply() + _countNfts, \"NFT: Check Max Supply\" );\r\n        for(uint i = 0; i < _countNfts; i++ ){\r\n        mintNFT(to, uri);\r\n        }\r\n    }\r\n\r\n    function mintNFT(address to, string memory uri) internal {\r\n        _tokenIdCounter.increment();\r\n        uint256 tokenId = _tokenIdCounter.current();\r\n        _safeMint(to, tokenId);\r\n        _setTokenURI(tokenId, uri);\r\n    }\r\n    \r\n    function _beforeTokenTransfer(address from, address to, uint256 tokenId)\r\n        internal\r\n        whenNotPaused\r\n        override(ERC721, ERC721Enumerable)\r\n    {\r\n        super._beforeTokenTransfer(from, to, tokenId);\r\n    }\r\n\r\n    // The following functions are overrides required by Solidity.\r\n\r\n    function _burn(uint256 tokenId) internal override(ERC721, ERC721URIStorage) {\r\n        super._burn(tokenId);\r\n    }\r\n\r\n    function tokenURI(uint256 tokenId)\r\n        public\r\n        view\r\n        override(ERC721, ERC721URIStorage)\r\n        returns (string memory)\r\n    {\r\n        return super.tokenURI(tokenId);\r\n    }\r\n\r\n    function supportsInterface(bytes4 interfaceId)\r\n        public\r\n        view\r\n        override(ERC721, ERC721Enumerable)\r\n        returns (bool)\r\n    {\r\n        return super.supportsInterface(interfaceId);\r\n    }\r\n\r\n    function lastTokenID() public view returns(uint256) {\r\n        return _tokenIdCounter.current();\r\n    }\r\n\r\n    function contractBalance() public view returns(uint256) {\r\n        return address(this).balance;\r\n    }\r\n\r\n    function withdraw() public payable onlyOwner whenNotPaused returns(uint256){\r\n        uint balance = address(this).balance;\r\n        require(balance > 0, \"NFT: No ether left to withdraw\");\r\n\r\n        (bool success, ) = (msg.sender).call{value: balance}(\"\");\r\n        require(success, \"NFT: Transfer failed.\");\r\n        return balance;\r\n    }\r\n\r\n    function killContract()external payable onlyOwner() whenNotPaused returns(bool){\r\n        emit Transfer(address(this), owner(), address(this).balance);    \r\n        selfdestruct(payable(owner()));\r\n        return true;\r\n    }\r\n\r\n}",
  "sourcePath": "C:\\Users\\tariq\\Documents\\Trainings\\PIAIC\\React\\nft-dapp\\truffle\\contracts\\Karachiite.sol",
  "compiler": {
    "name": "solc",
    "version": "0.8.10+commit.fc410830.Emscripten.clang"
  },
  "schemaVersion": "3.4.4",
  "updatedAt": "2022-01-30T04:38:25.470Z",
  "networkType": "ethereum",
  "devdoc": {
    "kind": "dev",
    "methods": {
      "approve(address,uint256)": {
        "details": "See {IERC721-approve}."
      },
      "balanceOf(address)": {
        "details": "See {IERC721-balanceOf}."
      },
      "burn(uint256)": {
        "details": "Burns `tokenId`. See {ERC721-_burn}. Requirements: - The caller must own `tokenId` or be an approved operator."
      },
      "getApproved(uint256)": {
        "details": "See {IERC721-getApproved}."
      },
      "isApprovedForAll(address,address)": {
        "details": "See {IERC721-isApprovedForAll}."
      },
      "name()": {
        "details": "See {IERC721Metadata-name}."
      },
      "owner()": {
        "details": "Returns the address of the current owner."
      },
      "ownerOf(uint256)": {
        "details": "See {IERC721-ownerOf}."
      },
      "paused()": {
        "details": "Returns true if the contract is paused, and false otherwise."
      },
      "renounceOwnership()": {
        "details": "Leaves the contract without owner. It will not be possible to call `onlyOwner` functions anymore. Can only be called by the current owner. NOTE: Renouncing ownership will leave the contract without an owner, thereby removing any functionality that is only available to the owner."
      },
      "safeTransferFrom(address,address,uint256)": {
        "details": "See {IERC721-safeTransferFrom}."
      },
      "safeTransferFrom(address,address,uint256,bytes)": {
        "details": "See {IERC721-safeTransferFrom}."
      },
      "setApprovalForAll(address,bool)": {
        "details": "See {IERC721-setApprovalForAll}."
      },
      "symbol()": {
        "details": "See {IERC721Metadata-symbol}."
      },
      "tokenByIndex(uint256)": {
        "details": "See {IERC721Enumerable-tokenByIndex}."
      },
      "tokenOfOwnerByIndex(address,uint256)": {
        "details": "See {IERC721Enumerable-tokenOfOwnerByIndex}."
      },
      "totalSupply()": {
        "details": "See {IERC721Enumerable-totalSupply}."
      },
      "transferFrom(address,address,uint256)": {
        "details": "See {IERC721-transferFrom}."
      },
      "transferOwnership(address)": {
        "details": "Transfers ownership of the contract to a new account (`newOwner`). Can only be called by the current owner."
      }
    },
    "version": 1
  },
  "userdoc": {
    "kind": "user",
    "methods": {},
    "version": 1
  }
}